:020000040800F2
:10000000700C00202902000801290008E9220008DC
:10001000E527000855060008053400080000000028
:10002000000000000000000000000000E1290008BE
:10003000510700080000000003290008E329000818
:10004000430200084302000843020008430200087C
:10005000430200084302000843020008430200086C
:10006000430200084302000843020008430200085C
:10007000590600084302000865060008430200080C
:10008000710600087D0600084302000843020008CC
:10009000430200084302000843020008430200082C
:1000A000430200084302000843020008430200081C
:1000B0004302000843020008892A0008430200089E
:1000C00043020008430200084302000843020008FC
:1000D00043020008430200084302000843020008EC
:1000E00043020008430200084302000843020008DC
:1000F00043020008430200084302000843020008CC
:1001000043020008430200084302000843020008BB
:1001100043020008430200084302000843020008AB
:1001200089060008430200089506000843020008FB
:10013000430200084302000843020008430200088B
:10014000430200084302000843020008430200087B
:100150004302000843020008A10600084302000809
:10016000430200084302000843020008430200085B
:100170004302000843020008430200080000000098
:10018000430200084302000800F002F800F03CF8C7
:100190000AA090E8000C82448344AAF10107DA45E2
:1001A00001D100F031F8AFF2090EBAE80F0013F0F8
:1001B000010F18BFFB1A43F0010318473037000046
:1001C00050370000103A24BF78C878C1FAD85207D7
:1001D00024BF30C830C144BF04680C6070470000C1
:1001E0000023002400250026103A28BF78C1FBD840
:1001F000520728BF30C148BF0B6070471FB503F0DE
:100200005FFB1FBD10B510BD00F010F91146FFF7E0
:10021000F5FF03F009F900F02EF903B4FFF7F2FF40
:1002200003BC00F035F90000094880470948004741
:10023000FEE7FEE7FEE7FEE7FEE7FEE7FEE7FEE796
:10024000FEE7FEE704480549054A064B70470000F3
:10025000792A00088901000870060020700C00202F
:10026000700800207008002053EA020C00F069803A
:100270002DE9F04B4FF00006002B1FBFB3FA83F5BA
:1002800003FA05F424FA05F65E4012BF1643B2FAEB
:1002900082F502FA05F4C5F120051EBF22FA05FC1D
:1002A00044EA0C04203556EA044C4FEA144418BFC3
:1002B000641C4FF000084FF00009904271EB030CF2
:1002C00039D3002919BFB1FA81F701FA07F6B0FA5C
:1002D00080F700FA07F6C7F120071EBF20FA07FCD7
:1002E00046EA0C062037B6FBF4FCA7EB0507103FE7
:1002F00007F01F0BCBF120060CFA0BFB2CFA06F6CD
:1003000044BFB3460026202FA4BF5E464FF0000B2B
:100310005BEA060C08BF4FF0010B19EB0B09ABFBB6
:10032000027C48EB0608C01B06FB02CC0BFB03CC8F
:1003300071EB0C01C1E70B46024641464846BDE859
:10034000F08B13B54FF000004FF00001AFF30080C9
:10035000BDE81C40704710B5431C02E010F8011BBB
:1003600071B18107FAD14FF0013202C88C1A8C4367
:1003700014EAC211F9D0C01A0A0603D0C01E10BD7B
:10038000C01A10BD0A0401D0801E10BD0902FCD0A5
:10039000401E10BD4FF000020429C0F0128010F082
:1003A000030C00F01B80CCF1040CBCF1020F18BF51
:1003B00000F8012BA8BF20F8022BA1EB0C0100F0E4
:1003C0000DB85FEAC17C24BF00F8012B00F8012BB7
:1003D00048BF00F8012B70474FF0000200B51346EC
:1003E00094469646203922BFA0E80C50A0E80C5055
:1003F000B1F12001BFF4F7AF090728BFA0E80C5006
:1004000048BF0CC05DF804EB890028BF40F8042BFE
:1004100008BF704748BF20F8022B11F0804F18BF6B
:1004200000F8012B7047704770477047754600F021
:100430002BF8AE4605006946534620F00700854676
:1004400018B020B5FFF7FEFEBDE820404FF00006D3
:100450004FF000074FF000084FF0000B21F00701AC
:10046000AC46ACE8C009ACE8C009ACE8C009ACE8EF
:10047000C0098D46704710B50446AFF30080204692
:10048000BDE81040FFF7C9BE004870470C060020C9
:1004900001491820ABBEFEE726000200704710B5E8
:1004A0000146806B026C12F0500F05D0026CD20630
:1004B00026D500F0F9F910BD016C41F4007101641A
:1004C00001688A6812F0405F17D1027EAAB9CA6A31
:1004D00012F4700F02D08A6852050ED44A6822F0D6
:1004E00020024A60016C21F480710164016CC9042E
:1004F00003D4016C41F00101016400F0D3F910BD97
:10050000806BC26CBDE810400846104710B5806B88
:1005100040210164416C41F00401416400F0C4F9E0
:1005200010BD10B5806B00F0BEF910BD464910B586
:100530004A6822F440324A604A6843681A434A6073
:1005400001684A6822F480724A6001684A68036957
:1005500042EA03224A6001684A6822F040724A6017
:1005600001684A6883681A434A6001688A6822F40D
:1005700000628A6001688A68C3681A438A60816A77
:100580006FF07062D14201688A6822F070628A60FE
:1005900001688A680CD0836A1A438A6001688A6895
:1005A00022F040528A6001688A68C36A1A4301E0F7
:1005B00022F040528A6001688A6822F002028A6052
:1005C00001688A68037E42EA43028A6090F820103C
:1005D000002901684A680FD042F400624A6001684D
:1005E0004A6822F460424A6001684A68174C436ACC
:1005F00004EB43331A4301E022F400624A600168CD
:10060000CA6A22F47002CA620168CA6A838B104CFB
:1006100004EB03531A43CA6201688A6822F4007229
:100620008A6001688A6890F8303042EA43228A6022
:1006300001688A6822F480628A6001688A68406979
:1006400042EA8020886010BD0023014000E0FFFFE7
:100650000000F0FFFEE70000014800F05FBA000074
:1006600014040020014800F059BA0000740400206E
:10067000014800F053BA000054030020014800F084
:100680004DBA0000B4030020014800F047BA000052
:1006900078000020014800F041BA000094020020D8
:1006A000014800F03BBA0000F40200200168182362
:1006B000CAB2103AB2FBF3F2054B6FF30901032AF9
:1006C0009B5CC36500D9091D816508467047000021
:1006D000CA38000810B5014600208B698A6A4FF0BD
:1006E000C07453B1B3F5005F15D072B1012A0CD0BC
:1006F000022A0AD0032A09D104E01AB1012A06D03D
:10070000022A03D1C96AC90100D5012010BDC96AF6
:10071000A142FAD010BD002AF7D0012AF2D0022A55
:10072000F3D0032AF3D010BD30B50468256825F452
:1007300080252560046863608368402B036803D0CC
:1007400099600068C26030BD9A600068C16030BDC9
:10075000704772B6FEE7000078B50024009490F868
:100760003C20012A19D0012280F83C200A68072386
:100770000568092A13D9EE680A3A02EB420293404F
:100780009E43EE600B788A680A3B03EB43039A4072
:100790000368DD682A43DA6010E0022078BD2E6924
:1007A00002EB420293409E432E610B788A6803EB72
:1007B00043039A4003681D692A431A614A681F234C
:1007C000072A13D205686E6B521E02EB8202934019
:1007D0009E436E630B790A885B1E92B203EB830320
:1007E0009A4003685D6B2A435A6327E005680D2A27
:1007F00012D22E6BD21F02EB820293409E432E63D5
:100800000B790A88DB1F92B203EB83039A400368DB
:100810001D6B2A431A6311E0EE6A0D3A02EB820265
:1008200093409E43EE620B790A880D3B92B203EB34
:1008300083039A400368DD6A2A43DA62164B05682F
:10084000144A9D4206D10D68122D03D1556845F416
:100850008005556005689D4218D10B68102B01D0AA
:10086000112B13D1536843F4000353600968102916
:100870000CD10A490A4A0968B1FBF2F101EB810186
:10088000490000E0491E00910029FBD180F83C405E
:10089000002078BD00230140002001401800002006
:1008A00040420F0070477047704770B504004FF02A
:1008B000000503D0206C002610B107E0012070BDB8
:1008C000204600F01DF8666484F83C60206CC00689
:1008D00010D4206C20F4885040F0020020642046A0
:1008E000FFF724FE6664206C20F0020040F0010057
:1008F000206400E0012584F83C60284670BD0000BB
:10090000F0B587B0064614216846FFF765FD274914
:100910003068884248D126480025016841F480713A
:1009200001600068224900F480701439059008685D
:1009300040F004000860086800F0040005900868B2
:1009400040F0010008600868032700F001000590EE
:100950000120CDE9000769460295164800F062FAC9
:10096000F020CDE9000769460295134800F05AFAD5
:10097000134C1248C4E900050015A560C4E90350F2
:10098000400060618000A0614011C4E907050420B7
:100990006062C4E90A752046256300F08FF908B14A
:1009A000FFF7D7FEB463A66307B0F0BD0020014097
:1009B0004438024000080240000002401064024037
:1009C00078000020F8B50E4600210446009190F80A
:1009D0003C0013460A46012807D0012084F83C0059
:1009E00020688568ED0702D011E00220F8BD856817
:1009F00045F0010585604048404D0068B0FBF5F0CA
:100A000000EB400000E0401E00900028FBD1206871
:100A10008568ED0503D5856825F4807585602068B7
:100A20008568ED075DD0226C40F20165AA4342F46F
:100A3000807222644068400505D5206C20F4005087
:100A400040F480502064206CC00404D5606C20F019
:100A50000600606400E0616484F83C10A16B2948E2
:100A6000274DC863A16B28480864A16B2748C86458
:100A700021686FF0220008602068416841F08061C1
:100A800041602068816841F480718160216832464C
:100A90004C31A06B00F07CF9024668681C49C00626
:100AA000206806D0884224D1816811F0405F13D0BD
:100AB0001FE08842F8D0174B984203D1D1F8043395
:100AC000DB06F1D0144B984213D1D1F8041301F096
:100AD0001F011029E8D30CE0816841F0804181605A
:100AE00007E0206C40F010002064606C40F00100D2
:100AF00060641046F8BD00001800002040420F005E
:100B0000002301409F040008230500080D0500088C
:100B10000020014000210140002201402DE9F8435E
:100B200004464FF00009CDF8009063484FF4165189
:100B3000A56D0068B0FBF1F72E6894F85C100820F2
:100B400000FA01F131420FD021680A6852070BD533
:100B50000A6822F004020A6094F85C108840A860D9
:100B6000606D40F00100606594F85C104FF0010882
:100B700008FA01F0304208D021684969090604D515
:100B8000A860606D40F00200606594F85C1004207D
:100B90008840304208D021680968890704D5A860D8
:100BA000606D40F00400606594F85C10102088408F
:100BB000304218D021680968090714D5A860206858
:100BC0000168490304D50068000308D5A16C07E05B
:100BD0000168C90503D4016821F008010160216C96
:100BE00009B12046884794F85C10202088403042A4
:100BF00031D021680968C9062DD5A86094F8350060
:100C000005282068016806D0490347D5006800031D
:100C10001DD4616C1CE021F016010160206841695F
:100C200021F080014161206C08B9A06C20B12068DE
:100C3000016821F00801016094F85C103F208840B1
:100C4000A86084F8358084F83490216D1FE0E16B52
:100C500009B120468847606D00282BD0606DC00721
:100C600014D0052084F835002068016821F00101C6
:100C700001600098401C0090B84203D820680068CA
:100C8000C007F6D184F8358084F83490E16C0029EF
:100C900010D001B02046BDE8F04308470168C905FF
:100CA000D5D4016821F01001016084F8358084F802
:100CB0003490CCE7BDE8F883180000202DE9F0411E
:100CC000044600F0ADF906465CB1022084F8350018
:100CD000002584F834502068016821F0010101608A
:100CE0000DE00120BDE8F08100F09AF9801B052895
:100CF00005D920206065032084F83500F2E72068DC
:100D00000068C007F0D12268116820480140D4E98A
:100D100001031843D4E90336334318436369184386
:100D2000A3691843E3691843236A18430843616AB7
:100D3000042903D1D4E90B13194308431060206838
:100D40004069666A20F0070130460E4301270428F7
:100D50000CD1A06A0643E06A40B12046FFF7BAFC16
:100D600020B14020606584F83570BAE7206846619C
:100D70002046FFF79BFC94F85C203F219140816066
:100D8000656584F835700020ACE700003F8010F006
:100D90002DE9F0410446866D90F8340000250128C5
:100DA0000DD0012084F8340094F835700020012F14
:100DB00007D084F8340002252846BDE8F0810220DF
:100DC000FBE7022784F8357060652046FFF7ACFC2E
:100DD00094F85C103F208840B0602068016841F0C2
:100DE00016010160206C20B12068016841F0080103
:100DF00001602068016841F001010160DCE700004A
:100E000070B5044600F00CF90546601C02D0044899
:100E10000078044400F004F9401BA042FAD370BDEE
:100E20000C0000202DE9F84FDFF8BCA100220125BD
:100E300003264FF00F090AF1040BAAF1040E00BFBC
:100E40000B6805FA02F42340A34270D10F7907F032
:100E50000307012F01D0022F16D187684FEA4208FD
:100E600006FA08FC27EA0C07D1F80CC00CFA08FCBB
:100E70004CEA070CC0F808C04768A7430C79C4F3D4
:100E8000001494403C4344600C79E443A4070AD026
:100E9000C4684FEA420C06FA0CF7BC438F6807FAA5
:100EA0000CF72743C7600C7904F00304022C12D11D
:100EB000D40800EB840CDCF820405707FF0E09FA39
:100EC00007F824EA0804D1F8108008FA07F848EA7D
:100ED0000408CCF8208004684FEA420C06FA0CF7AC
:100EE000BC430F7907F0030707FA0CF727430760A5
:100EF0004C6814F4403F70D03C4C276847F480475E
:100F00002760246822F0030704F480440094384CDE
:100F100007EB040CDCF8084897074FEA177809FA42
:100F200008F7BC43334FB84202D1002724E054E015
:100F3000314FB84201D101271EE0304FB84201D1F4
:100F4000022719E02E4FB84201D1032714E02D4F9C
:100F5000B84201D104270FE02B4FB84201D1052739
:100F60000AE02A4FB84201D1062705E0284FB842CF
:100F700001D1072700E0082707FA08F72743CCF834
:100F80000878DAF800405746D1F804C09C435FEA7D
:100F9000CC2C00D51C433C60DBF800405F46D1F808
:100FA00004C09C435FEA8C2C00D51C433C60DEF8F7
:100FB00000407746D1F804C09C435FEA8C3C00D5E2
:100FC0001C433C60084F083F3C68D1F804C09C4378
:100FD0005FEACC3C00D51C433C60521C102AFFF455
:100FE0002FAFBDE8F88F0000083C014044380240B4
:100FF00000300140000002400004024000080240AE
:10100000000C024000100240001402400018024090
:10101000001C02400AB1816170470904FBE700002F
:1010200001488068704700000C00002070B5040083
:1010300025D094F83D00002520B984F83C50204686
:1010400000F0B8F8242084F83D002068016821F001
:10105000010101602068016841F4004101602068DD
:10106000016821F40041016000F00EFA4D4A616808
:10107000914201D84C4900E04C49884201D20120FC
:1010800070BD4B492368B0FBF1F15E6826F03F0666
:101090000E435E606368934206D94FF496735943DA
:1010A0004FF47A73B1FBF3F12368491C1E6A26F0F2
:1010B0003F06314319626168914210D84900401ED1
:1010C000B0FBF1F2521CC2F30B02042A01D204203D
:1010D00022E0B0FBF1F0401CC0F30B001CE0A26862
:1010E000F2B301EBC10303EB0116431EB3FBF6F3AE
:1010F0005B1C43F480431B0549D092B301EBC10252
:1011000002EB0111401EB0FBF1F0401CC0F30B00DC
:1011100040F4804040F400402168CA694CF6FF73F7
:101120009A431043C861D4E907100143206802685C
:1011300022F0C00211430160D4E903010143206899
:10114000826848F2FF339A4311438160D4E9050174
:1011500008432168CA6822F0FF021043C86001E01A
:101160000EE016E02068016841F00101016025648D
:10117000202084F83D00256384F83E50002070BD97
:1011800001EB4106431EB3FBF6F35B1CB3E7012002
:10119000C2E701EB4101401EB0FBF1F0401CC0F37F
:1011A0000B00B7E7A086010080841E0000093D0007
:1011B00040420F0010B586B0044614216846FFF780
:1011C0000BF914492068884221D113480021026894
:1011D00042F002020260006800F0020005904FF445
:1011E000407000901220CDE90101032003900420FB
:1011F000049069460948FFF715FE0748103001685A
:1012000041F400110160006800F40010059006B080
:1012100010BD00000054004030380240000402407D
:101220000248816802781144816070470C000020F8
:101230000B4810B5016841F400710160016841F488
:1012400080610160016841F480710160032000F059
:101250006FF80F2000F006F800F024F8002010BD11
:10126000003C024070B50D4D04464FF47A71287869
:10127000B1FBF0F00A490968B1FBF0F000F00AFB9D
:1012800048B9102C07D200222146501E00F030F839
:1012900000206C6070BD012070BD00000C000020BB
:1012A000180000200A4808B5016841F48041016037
:1012B000006800F4804000900548001F016841F07C
:1012C00080510160006800F08050009008BD00006F
:1012D00044380240002809DB00F01F020121914040
:1012E0004009800000F1E020C0F8001170470000C4
:1012F000F0B40E4B1B680C46C3F30223C3F1070581
:10130000042D00D90425191D072901D2002300E06E
:10131000DB1E012606FA05F1491E214099409E4038
:10132000761E16403143F0BC02F06DB80CED00E0C3
:10133000064900F0070208684FF6FF03184040EA2C
:101340000220034A10430860704700000CED00E0E3
:101350000000FA052DE9F0470E46050065D0DFF8DC
:101360001481D8F80000F7B200F00700B04207D2AD
:1013700088F80070D8F8000000F00700B04254D19F
:1013800028683D4C810712D5400703D5206840F4FA
:10139000E05020602878000703D5206840F46040C2
:1013A00020602068A96820F0F000084320602878B9
:1013B000C0072DD0304968680839012812D00228AA
:1013C00013D0032811D00968890700292DDA216874
:1013D00021F0030101432160FFF722FE814641F223
:1013E000883A0EE009688903EFE709688901ECE7AC
:1013F000FFF716FEA0EB0901514502D90320BDE815
:10140000F0872068696800F00C00B0EB810FEFD125
:10141000D8F80010404601F00701B14207D9077023
:10142000006800F00700B04201D00120E7E728780B
:10143000400705D52068E96820F4E05008432060A3
:101440002878000706D52068296920F4604040EA22
:10145000C100206000F038F82168084AC1F3031188
:10146000515CC8400649086006480068FFF7FAFE6C
:101470000020C4E7003C024008380240D23800088F
:101480001800002010000020044805490068096881
:10149000044AC1F38221515CC84070471800002003
:1014A00008380240E2380008044805490068096825
:1014B000044AC1F34231515CC84070471800002013
:1014C00008380240E2380008154810B5006810F0EE
:1014D0000C02144813D04110042A0FD0082A0ED150
:1014E0000F4C241F2268236802F03F025B0207D5DD
:1014F0002068C0F38810A0FB010106E0084610BD7B
:101500002168C1F38811A1FB00010023FEF7ACFEA6
:101510002168C1F30141491C4900B0FBF1F010BD45
:10152000083802400024F4002DE9F84F04006ED082
:101530002078DFF84C93C007A9F104054AD009F1DF
:1015400004000168C1F38101012908D00068C0F3DB
:10155000810002280AD1D9F80000400206D5286887
:10156000800337D560680028E1D033E06068B0F5CB
:10157000803F10D0B0F5A02F286810D020F4803024
:101580002860286820F4802028606068A8B1FFF7F0
:1015900047FD06460DE0286840F48030F4E740F44B
:1015A00080202860F7E700BFFFF73AFD801B642822
:1015B00073D828688003F7D50CE0FFF731FD0646A5
:1015C00005E000BFFFF72CFD801B6428F0D82868D9
:1015D0008003F7D42078DFF8AC8280074FF0000A50
:1015E0003ED5A748001D016811F00C0F08D0006817
:1015F000C0F3810002280BD1D9F80000400207D4C3
:101600002868800716D5E068012800D112E033E190
:10161000E068B8B10120C8F80000FFF701FD0646F8
:1016200005E000BFFFF7FCFC801B0228C0D828683B
:101630008007F7D52868216920F0F80040EAC1004A
:1016400028600DE0C8F800A0FFF7EAFC064604E0B9
:10165000FFF7E6FC801B02281FD828688007F7D414
:101660002078000722D5864F87486169703771B1AD
:1016700001210160FFF7D4FC064604E0FFF7D0FC2F
:10168000801B022809D838688007F7D50EE0C0F81B
:1016900000A0FFF7C5FC064605E082E0FFF7C0FCAE
:1016A000801B02287DD838688007F7D4207840074F
:1016B00068D5DFF8CCB100270BF13C0BDBF800005C
:1016C000C0000BD4DBF8001041F08051CBF80010C3
:1016D000DBF80000012700F0805000906B4E30686E
:1016E000C00510D4306840F480703060FFF798FC7B
:1016F000009005E0FFF794FC0099401A022850D8AA
:101700003068C005F6D55E4EA0686C3601280FD053
:101710000528306810D020F001003060306820F0DB
:1017200004003060A068B8B1FFF77AFC00900FE0C9
:10173000306840F00100F4E740F004003060F7E763
:10174000FFF76EFC0099411A41F28830814266D859
:1017500030688007F4D50EE0FFF762FC009007E0E8
:10176000FFF75EFC0099411A41F28830814256D859
:1017700030688007F4D42FB1DBF8001021F08051DD
:10178000CBF80010A069C8B33D49091D0968C1F331
:10179000810102294AD00228504607D0C8F86000CB
:1017A00000E03CE0FFF73CFC04463BE04746C8F85D
:1017B0006000FFF735FC064605E000BFFFF730FC90
:1017C000801B02282BD828688001F7D4D4E90701B0
:1017D0000843A16A2E4A490802EB0141626A41EAC4
:1017E0008211084394F82C1040EA0161C9F80010F6
:1017F00001203866FFF714FC044606E03EE000BF17
:10180000FFF70EFC001B022809D828688001F7D5D5
:1018100034E000BFFFF704FC001B022802D90320BC
:10182000BDE8F88F28688001F4D427E00128F7D0BC
:10183000D9F80000E26900F4800191421CD1226ACB
:1018400000F03F01914217D147F6C071626A014032
:10185000B1EB821F10D1A26A4FF0FF3300F4403188
:1018600003EB5202B1EB024F06D194F82C1000F0BA
:101870007060B0EB016F01D00120D1E70020CFE70D
:101880000438024000004742800E4742007000408A
:101890000000FFFF10B5401EB0F1807F01D3012092
:1018A00010BD4FF0E02460610F21601701F0ABFD27
:1018B0000020A06107202061002010BD70B590F8C5
:1018C0003C20012A32D0012480F83C40022280F8DA
:1018D0003D2003685A689D6822F070060A6832430A
:1018E0005A60134B02689A4214D0B2F1804F11D063
:1018F000104B9A420ED0104B9A420BD00F4B9A428B
:1019000008D00F4B9A4205D00E4B9A4202D00E4B94
:101910009A4204D1496825F080031943916080F808
:101920003D40002180F83C10084670BD022070BD8B
:10193000000001400004004000080040000C00408E
:1019400000040140004001400018004010B50400B0
:1019500003D094F83D0010B107E0012010BD002035
:1019600084F83C00204600F01FF8022084F83D0077
:10197000211D206801F08AF8012084F8460084F8CF
:101980003E0084F83F0084F8400084F8410084F869
:10199000420084F8430084F8440084F8450084F849
:1019A0003D00002010BD000008B500680B498842CA
:1019B00012D10B48016841F0040101600068002267
:1019C00000F00400009011461E20FFF791FCBDE8D6
:1019D00008401E20FFF77EBC08BD00000008004044
:1019E0004038024090F83D10012901D00120704795
:1019F000022180F83D100168CA6842F00102CA6005
:101A000000681149884214D0B0F1804F11D00F49BD
:101A100088420ED00E4988420BD00E49884208D029
:101A20000D49884205D00D49884202D00C498842B0
:101A300004D1816801F00701062903D0016841F053
:101A400001010160002070470000014000040040D7
:101A500000080040000C004000040140004001402C
:101A60000018004070B5044690F83C00002501289D
:101A700017D0012684F83C60022084F83D002068DD
:101A8000826822F0770222F47F4282600868502840
:101A900038D00DDC20284FD005DC90B3102811D1B0
:101AA0004AE0022070BD302846D040280AD13BE0F1
:101AB00060282FD070280DD0B0F5805F03D0B0F52E
:101AC000005F12D0012584F83D60002084F83C00BE
:101AD000284670BDCB68D1E90121206801F04BF8A0
:101AE0002068816841F0770109E0CB68D1E90121E4
:101AF000206801F040F82068816841F480418160ED
:101B0000E1E719E0CA684968206801F009F9502145
:101B1000206806E0CA684968206801F012F960216F
:101B2000206801F032F8CEE7CA684968206801F001
:101B3000F7F840212068F4E7226801461046F0E7F4
:101B400030B587B0044614216846FEF745FC1649B7
:101B50002068884226D115480024016841F002011E
:101B60000160016801F002010591016841F0040182
:101B700001600068022500F0040005900320009039
:101B8000CDE9015469460A48CDE90345FFF74AF912
:101B9000C0200090CDE9015469460648CDE90345CF
:101BA000FFF740F907B030BD000400403038024074
:101BB000000402400008024070B5044690F83C0062
:101BC00000260D4601280FD0012084F83C006AB1A0
:101BD000042A1DD0082A2FD00C2A3FD0012600202D
:101BE00084F83C00304670BD022070BD206800F0D3
:101BF000D5FF2068816941F0080181612068816911
:101C000021F004018161206881692A69114311E092
:101C1000206800F0F3FF2068816941F40061816170
:101C20002068816921F480618161206881692A6965
:101C300041EA02218161D2E7206801F015F82068AD
:101C4000C16941F00801C1612068C16921F0040146
:101C5000C1612068C1692A69114311E0206801F05F
:101C600037F82068C16941F40061C1612068C16929
:101C700021F48061C1612068C1692A6941EA0221B9
:101C8000C161ACE710B5040003D094F83D0010B179
:101C900007E0012010BD002084F83C00204600F041
:101CA0001FF8022084F83D00211D206800F0EEFEA0
:101CB000012084F8460084F83E0084F83F0084F850
:101CC000400084F8410084F8420084F8430084F81E
:101CD000440084F8450084F83D00002010BD000059
:101CE00008B500680649884208D10648016841F0F5
:101CF00002010160006800F00200009008BD0000D1
:101D0000000400404038024010B50446022249B1A8
:101D100004290ED0082913D094F84100012816D0C8
:101D2000012010BD94F83E000128F9D184F83E202E
:101D30000FE094F83F000128F2D184F83F2008E03A
:101D400094F840000128EBD184F8402001E084F8A9
:101D500041200122206800F001FF16492068164A40
:101D6000884201D0904203D1436C43F40043436462
:101D70002068884213D0B0F1804F10D00F498842BC
:101D80000DD00F4988420AD00E49884207D09042B0
:101D900005D00D49884202D00C49884204D181689F
:101DA00001F00701062903D0016841F0010101603B
:101DB000002010BD0000014000040140000400406C
:101DC00000080040000C00400040014000180040A6
:101DD00038B5044690F84200202801D0022038BDD2
:101DE00051B14AB10120206300206063204601F018
:101DF000BBF9216B012901D0012038BD21680A6897
:101E00004968009121680C3151E8002F42F010021E
:101E100041E80023002BF5D138BD00000068124BCB
:101E20000122984207D111480270114863220180B3
:101E30001049114814E0114B984207D11048027024
:101E40001048632201801049104809E0104B984265
:101E500008D1104802701048632201800F491048D1
:101E6000FFF7B6BF704700000010014000000020DF
:101E700004000020D4040020BC01002000440040E5
:101E80000100002006000020380500200402002088
:101E90000048004002000020080000209C050020AF
:101EA0004C0200200068144982B0884208D11348CF
:101EB0000068016840680090632211490F4816E0ED
:101EC0001049884208D110480068016840680090B5
:101ED00063220E490C480AE00D4988420AD10D4898
:101EE00000680168406800900B490A48632202B00C
:101EF000FFF76EBF02B0704700100140BC01002028
:101F0000D4040020004400400402002038050020D2
:101F1000004800404C0200209C05002070B50400E1
:101F200004D094F84100002510B106E0012070BDF6
:101F300084F84050204600F023F8242084F8410023
:101F40002068C16821F40051C160204601F086F884
:101F50002068016921F4904101612068416921F004
:101F60002A0141612068C16841F40051C160656483
:101F7000202084F8410084F842006563002070BD91
:101F80002DE9F04F87B0054614216846FEF724FA84
:101F9000A948DFF8A0820221D5F800C00322072358
:101FA000DFF898A200248E0607154FF04009C445BB
:101FB00064D1DFF884C20CF1140CDCF8008048F026
:101FC0001008CCF80080DCF800C00CF0100CCDF844
:101FD00014C0D0F800C04CF0020CC0F800C000687B
:101FE00000F002000590C0208DE8130069465046BD
:101FF000CDE90323FEF716FFDFF8488290494046FB
:10200000C8F80010C0E90164C0E90347C8F81440EB
:10201000C8F81840C8F81C40C8F82040C8F8244048
:10202000FEF74CFE08B1FEF794FBC5F83C80C8F8FB
:102030003850DFF81082824908F160084046783154
:10204000C0E90347C8F81440C8F81840C8F81C4055
:10205000C8F8204088E84202C8F82440FEF72EFE67
:1020600008B1FEF776FBC5F838800022114625201E
:10207000C8F83850FFF73CF9252065E0DFF8C88143
:10208000DFF8B4B1C4450BF1100B62D1DBF800806E
:10209000A24648F40038CBF80080DBF800C00CF40E
:1020A000003CCDF814C0D0F800C04CF0010CC0F8D2
:1020B00000C0006800F0010005900C208DE81300BE
:1020C00069466248CDE90323FEF7ACFEDFF8748170
:1020D0005F4908F1C0084046C8F80010C0E9016433
:1020E000C0E90347C8F81440C8F81840C8F81C40B5
:1020F000C8F82040C8F82440FEF7E0FD08B1FEF71C
:1021000028FB5348534CC5F83C801830C8F8385069
:1021100084E84102C4E903A7C4F814A0C4F818A0D5
:10212000C4F81CA0C4F820A02046C4F824A0FEF7E0
:10213000C5FD08B1FEF70DFBAC630122002126208E
:10214000A563FFF7D5F82620FFF7C4F807B0BDE870
:10215000F08FDFF80481C445F8D1DBF8008048F443
:102160008028CBF80080DBF800C00CF4802CCDF880
:1021700014C0D0F800C04CF0020CC0F800C00068D9
:1021800000F0020005904FF440608DE813006946AE
:102190005046CDE90323FEF745FEDFF8B8802C4911
:1021A00008F1600860394046C8F80010C0E90164D1
:1021B000C0E90347C8F81440C8F81840C8F81C40E4
:1021C000C8F82040C8F82440FEF778FD08B1FEF7B3
:1021D000C0FAC5F83C80C8F83850DFF878801C4950
:1021E00008F1C00840463039C0E90347C8F8144038
:1021F000C8F81840C8F81C40C8F8204088E84202D7
:10220000C8F82440FEF75AFD08B1FEF7A2FAC5F857
:102210003880022200212720C8F83850FFF768F8DC
:102220002720FFF757F8002201210C20FFF760F864
:102230000C2089E7001001403038024000040240C1
:10224000406402409402002000440040000002402C
:1022500088600240B4030020004800407047704787
:1022600070B5044690F84100202801D0022070BDCE
:1022700001B3FAB12162A284E284002060642123C8
:1022800084F84130A56B144BEB63A56B134B2B64A7
:10229000A56B134BEB64A36B186520681346A56B05
:1022A000021D2846FEF774FD30B110206064202026
:1022B00084F84100012070BD21686FF04000086083
:1022C0002068143050E8001F41F0800140E80012FF
:1022D000002AF5D1002070BDA72F0008E92F0008C3
:1022E000B92E000870477047FEE7000010B5074C94
:1022F00000224FF480512046FEF78CFE204601223A
:10230000BDE810409102FEF785BE000000100240BB
:1023100010B5064C012211032046FEF77BFE002279
:1023200021152046BDE81040FEF774BE00100240A3
:1023300010B5074C00224FF480512046FEF76AFE8C
:10234000002221152046BDE81040FEF763BE0000C4
:102350000010024010B5074C00224FF48071204657
:10236000FEF758FE20460122BDE810405102FEF75C
:1023700051BE00000010024010B5064C01221102AF
:102380002046FEF747FE002261152046BDE81040BA
:10239000FEF740BE0010024010B5074C00224FF47B
:1023A00080712046FEF736FE002261152046BDE80A
:1023B0001040FEF72FBE0000001002402DE9FF4143
:1023C00000242B480094019402942849039401604E
:1023D00001254FF480310561C0E90114057680F8CC
:1023E00020402449C0E90A140526C661C46080F86B
:1023F00030504561FEF759FA08B1FEF7AAF90427F3
:102400000097CDE9015469461948FEF7A5F908B1CE
:10241000FEF79FF90220CDE9006069461448FEF7F7
:102420009BF908B1FEF795F9062000900320019072
:1024300069460F48FEF790F908B1FEF78AF90720C0
:10244000CDE9000769460A48FEF786F908B1FEF7AC
:1024500080F90A20CDE9000669460548FEF77CF9B7
:10246000002801D0FEF775F9BDE8FF81002001408A
:10247000300000200100000F254808B5016841F434
:1024800080010160016801F480010091016841F45C
:10249000001101600068002200F400100090114655
:1024A0000C20FEF725FF0C20FEF714FF002211463A
:1024B0000E20FEF71DFF0E20FEF70CFF0022114636
:1024C0001020FEF715FF1020FEF704FF0022114632
:1024D0001120FEF70DFF1120FEF7FCFE0022114631
:1024E0003820FEF705FF3820FEF7F4FE00221146E3
:1024F0003A20FEF7FDFE3A20FEF7ECFE00221146E0
:102500004620FEF7F5FEBDE808404620FEF7E2BE95
:10251000303802402DE9F04186B014216846FDF7BD
:102520005BFF30480024016841F0800101600168D0
:1025300001F080010591016841F00401016001682A
:1025400001F004010591016841F001010160016899
:1025500001F001010591016841F00201016001688B
:1025600001F002010591016841F02001016001685C
:1025700001F020010591016841F01001016000683F
:10258000194F00F010004FF4005505900022294625
:102590003846FEF73FFDDFF854804FF4FE46002238
:1025A00031464046FEF736FD02200090CDE9010499
:1025B000CDE9034069460E48FEF734FC009501253D
:1025C000CDE90154694638460394FEF72BFC00968A
:1025D000CDE90154694640460394FEF723FC06B05A
:1025E000BDE8F08130380240001402400010024083
:1025F000000002400D4810B50B4901600C494160D4
:1026000000214FF480428160C0E903124161816181
:10261000C1610162FEF70AFD002803D0BDE8104049
:10262000FEF797B810BD000000540040D80000200D
:10263000A086010010B58AB0002407941C216846CA
:102640000894FDF7C9FE2248204901600321C0E932
:10265000011440F2E731C0E903148461FFF712FB73
:1026600008B1FEF776F8079407A919480894FFF710
:1026700025F908B1FEF76DF86020CDE90004029459
:102680000022694612480494FFF796FA08B1FEF753
:1026900060F8042269460E48FFF78EFA08B1FEF78B
:1026A00058F8082269460A48FFF786FA08B1FEF78B
:1026B00050F80C2269460648FFF77EFA08B1FEF78B
:1026C00048F80348FFF73CFA0AB010BD0004004088
:1026D0002C01002010B586B0002417480094019406
:1026E00002940394049413490594016041F61F4138
:1026F000C0E901146321C0E903148461FFF726F9DE
:1027000008B1FEF726F84FF48050009069460A4859
:10271000FFF7A8F908B1FEF71CF8049404A90648CD
:102720000594FFF7CBF8002801D0FEF712F806B0A9
:1027300010BD000000080040740100200C4810B5D6
:102740000A4901604FF4E1314160002181600C22AF
:10275000C160C0E904128161C161FFF7DFFB00289D
:1027600003D0BDE81040FDF7F4BF10BD00100140DC
:10277000BC0100200C4810B50A4901604FF4E1315A
:102780004160002181600C22C160C0E904128161B6
:10279000C161FFF7C3FB002803D0BDE81040FDF77F
:1027A000D8BF10BD00440040040200200C4810B502
:1027B0000A4901604FF4E1314160002181600C223F
:1027C000C160C0E904128161C161FFF7A7FB002865
:1027D00003D0BDE81040FDF7BCBF10BD004800406D
:1027E0004C020020FEE700002DE9F0411C46069F48
:1027F00015460E460F285BD2DFE800F008151C23B3
:102800002B33383D444B52656C737800FFF7C4FDA1
:1028100000F0D4F8FFF78CFD00F098F8002635465C
:102820003446374644E0FFF7A7FD00F0B5F8FFF760
:102830006FFD13E0FFF78EFD00F09CF8FFF756FDEB
:1028400004E0FFF787FD00F0A7F847E000F05AF832
:102850002EE0FFF791FD00F08DF838E000F064F80D
:1028600026E0FFF777FD00F097F830E0FFF784FDF2
:1028700000F080F832E0FFF78FFD00F08DF8FFF7F1
:1028800047FD13E0FFF778FD00F098F8FFF750FDE3
:10289000E4E7FFF75FFD00F091F8FFF749FDD5E7AA
:1028A000FFF77AFD00F066F8FFF720FD00F04EF824
:1028B000124801684E6301688D630168CC6300684B
:1028C0000764BDE8F081FFF767FD00F077F8FFF7D8
:1028D0000DFDC3E7FFF760FD00F070F8FFF718FD8E
:1028E000B4E7FFF737FD00F057F803E0FFF744FDCA
:1028F00000F040F8FFF71CFDD8E700002C01002095
:10290000FEE7704710B500224FF400610448FEF75F
:1029100081FB0122BDE8104051030248FEF77ABB5B
:10292000001002400014024010B50122D1020548F7
:10293000FEF770FBBDE8104000224FF40051024842
:10294000FEF768BB001002400014024010B50022E0
:102950004FF400610548FEF75DFBBDE81040002222
:102960004FF400510248FEF755BB00000010024032
:102970000014024010B5074C00224FF4804120465D
:10298000FEF748FB20460122BDE810405103FEF748
:1029900041BB00000010024010B5074C012291031A
:1029A0002046FEF737FB2046BDE8104000224FF4DA
:1029B0000051FEF72FBB00000010024010B5074C7D
:1029C00000224FF480412046FEF724FB2046BDE85C
:1029D000104000224FF40051FEF71CBB00100240D3
:1029E0007047FEF71DBC000030B593B0302168463B
:1029F000FDF7F2FC14210CA8FDF7EEFC1C480025A5
:102A0000016841F080510160006800F08050119031
:102A10001848016841F4804101600068022400F414
:102A20008040119001200090000401908001CDE9C8
:102A3000064008AA0420482182E813000B9068464B
:102A4000FEF772FD08B172B6FEE70CA90F2081E80F
:102A500031004FF480500F90109002210CA8FEF727
:102A600079FC002801D072B6FEE713B030BD00003B
:102A700040380240007000400248016841F4700193
:102A80000160704788ED00E070470000F0B5026813
:102A9000274B284D284E294F294C4FF0804C984207
:102AA00009D0604507D0A84205D0B04203D0B84253
:102AB00001D0A04204D122F0700E4A6842EA0E0210
:102AC00098421BD0604519D0A84217D0B04215D00B
:102AD000B84213D0A04211D01A4DA8420ED01A4DC0
:102AE000A8420BD0194DA84208D0194DA84205D0D4
:102AF000184DA84202D0184DA84203D122F44075C7
:102B0000CA682A434D6922F080022A438D68C56253
:102B10000D688562984201D0A04201D10969016324
:102B2000016841F004010160012141610260F0BDD2
:102B3000000001400004004000080040000C00407C
:102B400000040140004001400044014000480140B1
:102B500000180040001C00400020004010B501F0AB
:102B60001F030121046A99408C430462016A9A4060
:102B70001143016210BD10B5846842EA032224F4B7
:102B80007F440A432243826010BD826822F07002B3
:102B90000A4342F00701816070470000F0B5036A04
:102BA000026A22F00102026242688469124E24F035
:102BB00073050C682C4323F002058B682B430D4DE5
:102BC000A84201D0B04205D123F00807CB683B43AF
:102BD00023F00403A84201D0B04205D14D6922F48C
:102BE000407215438A692A4342608461496841639F
:102BF0000362F0BD0000014000040140F0B5026A2C
:102C0000036A23F010030362436884690D6824F4A7
:102C1000E64444EA05248D6822F0200242EA0512C7
:102C20000F4D104EA84201D0B04206D1CF6822F01D
:102C3000800242EA071222F04002A84201D0B042CC
:102C400007D14D6923F4406343EA85038D6943EA64
:102C5000850343608461496881630262F0BD0000BE
:102C60000000014000040140F0B5026A036A23F449
:102C7000807303624368C46922F4007224F0730510
:102C80000C68124E2C438D6842EA05220E4DA84274
:102C900001D0B04206D1CF6822F4006242EA072296
:102CA00022F48062A84201D0B04207D14D6923F4DA
:102CB000405343EA05138D6943EA05134360C46139
:102CC0004968C1630262F0BD000001400004014098
:102CD00030B5046A026A22F4805202624268C36913
:102CE0000D6823F4E64343EA05238D6824F4005479
:102CF00044EA0534084DA84202D0084DA84204D148
:102D00004D6922F4804242EA85124260C3614968FB
:102D10000164046230BD0000000001400004014075
:102D200010B5036A046A24F001040462846924F083
:102D3000F00444EA021423F00A020A4384610262A6
:102D400010BD10B5036A046A24F01004046284699B
:102D500023F0A00324F4704444EA023243EA011150
:102D60008261016210BD0000052202490248FDF7A0
:102D700029BE00000006002030000020F8B500F059
:102D800015FB4C4E307870B101287DD0022809D156
:102D9000FEF746F9B168401A40F65431884201D333
:102DA00000203070F8BD434C4FF496750C342078F9
:102DB00008B9617819B1617801290AD00CE0A178CD
:102DC00081B9E17889B929460B460A460120009568
:102DD0003CE0A278012AF6D0012801D0012901D1D6
:102DE000A17831B1A17801290CD0E178012909D06D
:102DF00009E0E1780029F8D129460B460A4605206A
:102E000000950AE010B101280DD00EE0607860B99D
:102E100029460B460A4606200095FFF7E5FC0A20E6
:102E2000FDF7EEFF14E0607828B1E0780128B9D111
:102E3000A07830B10FE029460B460A4603200095E2
:102E400004E029460B460A4604200095FFF7CCFC17
:102E5000E0780128A6D1A0780128A3D160780128C4
:102E6000A0D1207800289DD1707802289AD1012025
:102E700070703070FEF7D4F8294670600B460A4631
:102E80000120009512E0FFE7FEF7CAF87168401ACA
:102E9000B0F5966F86D302203070FEF7C1F84FF47C
:102EA000C871B0600B460A4606200091FFF79CFCF3
:102EB000F8BD00001C00002070B5846B20684069DC
:102EC00094F84110C0F3C0100025212904D118B195
:102ED000E584204600F0B4F82068406994F8421078
:102EE000C0F38010222904D118B1E585204600F0F6
:102EF00080F8606C40F0100060642046FEF7D2FF5E
:102F000070BD10B50146806B096809684FF000027A
:102F1000C9052ED4C28501680C3151E8003F23F465
:102F2000807341E80034002CF5D10168143151E878
:102F3000003F23F0010341E80034002CF5D1016883
:102F4000143151E8003F23F0400341E80034002CE5
:102F5000F5D1202180F84210016B012909D10168C7
:102F60000C3151E8003F23F0100341E80034002CFD
:102F7000F5D14263016B012902D0FFF76FF910BD53
:102F8000818DFEF74BFF10BD10B5806B01214163B1
:102F9000016B012902D0FFF762F910BD818D49084C
:102FA000FEF73CFF10BD10B50146806B096809684B
:102FB000C90516D40021C1840168143151E8002FDD
:102FC00022F0800241E80023002BF5D101680C318A
:102FD00051E8002F42F0400241E80023002BF5D1D8
:102FE00010BDFFF77FF910BD10B5806BFFF77BF9BF
:102FF00010BD01680C3151E8002F22F4907241E8B5
:103000000023002BF5D10168143151E8002F22F084
:10301000010241E80023002BF5D1016B012909D100
:1030200001680C3151E8002F22F0100241E8002322
:10303000002BF5D1202180F8421000210163704758
:1030400001680C3151E8002F22F0C00241E8002352
:10305000002BF5D1202180F84110704770B504464F
:1030600000680169E26821F440511143016121695E
:10307000A068E26908436169114308432168CA688E
:1030800049F20C639A430243CA6020684169A2690D
:1030900021F440711143416131492068884202D0D6
:1030A0003049884202D1FEF7FFF901E0FEF7ECF962
:1030B000E2690023192164253226B2F5004F6268C7
:1030C00028D0A0FB0101930F9200FDF7CDF8014637
:1030D000B0FBF5F06FF01802504301EB800006EBF7
:1030E0000010B0FBF5F000F0F002B1FBF5F002EBE0
:1030F0000012B1FBF5F06FF01803584301EB8000AC
:1031000006EB0010B0FBF5F000F00F002168104452
:10311000886070BDA0FB010192185B41FDF7A4F827
:103120000146B0FBF5F00201B1FBF5F06FF01803BA
:10313000584301EB800006EBC000B0FBF5F000F057
:10314000F80002EB4002B1FBF5F0584301EB8000C0
:1031500006EBC000B0FBF5F000F00700D6E700007A
:10316000001001400014014038B581620446828598
:10317000002013466064222284F84220E56B1F4A37
:10318000EA63E56B1E4A2A64E56B1E4AEA64E26B59
:1031900010650A462168E06B091DFDF7F9FD30B1A5
:1031A00010206064202084F84200012038BD20688F
:1031B000016840680090206948B120680C3050E8F0
:1031C000001F41F4807140E80012002AF5D1206808
:1031D000143050E8001F41F0010140E80012002ABD
:1031E000F5D12068143050E8001F41F0400140E85C
:1031F0000012002AF5D1002038BD0000032F00087E
:10320000892F0008B92E000810B564210848FDF781
:10321000E3F8084800216322818001700449A1F588
:103220004670FEF7D5FDBDE8104003A000F022B8BF
:10323000D40400200000002052454144590A0000F7
:1032400010B5094C207800280CD0084AA18802F556
:10325000467000F0A9FA64210548FDF7BDF800208A
:10326000A080207010BD000000000020BC010020E4
:10327000D404002010B5040008D0FDF76CF82146F6
:1032800082B2BDE810400248FEF7EABF10BD000060
:10329000BC01002010B564210848FDF79DF80848DE
:1032A00000216322C18041700449A1F54D70FEF7F1
:1032B0008FFDBDE8104003A000F022B838050020C3
:1032C0000000002052454144590A000010B5094C45
:1032D000607800280CD0084AE18802F54D7000F0B3
:1032E00063FA64210548FDF777F80020E0806070FC
:1032F00010BD00000000002004020020380500205E
:1033000010B5040008D0FDF726F8214682B2BDE8CA
:1033100010400248FEF7A4BF10BD000004020020C8
:1033200010B564210848FDF757F8084800216322CA
:10333000018181700449A1F55470FEF749FDBDE893
:10334000104003A000F022B89C05002000000020DF
:1033500052454144590A000010B5094CA078002894
:103360000CD0084A218902F5547000F01DFA64213E
:103370000548FDF731F800202081A07010BD000045
:10338000000000204C0200209C05002010B5040025
:1033900008D0FCF7E0FF214682B2BDE810400248A9
:1033A000FEF75EBF10BD00004C02002013494FF431
:1033B000FA620888904201D9012300E000231048F6
:1033C00003704B88934201D9012300E0002343702E
:1033D0008B88934201D9012300E000238370CB88BE
:1033E000934201D9012300E00023C370098991426F
:1033F00001D9012100E00021017170470006002081
:1034000028000020FEE70907090E002804DB00F170
:10341000E02080F80014704700F00F0000F1E02079
:1034200080F8141D70470000FDF702FFFFF7DCFA7B
:10343000FFF770F8FFF720F8FFF780F9FEF7BEFFFF
:10344000FFF7F8F8FFF796F9FFF7B0F9FFF7D2F8B2
:10345000FFF740F900211448FEF756FC04211248FA
:10346000FEF752FC08211048FEF74EFC0C210E48D6
:10347000FEF74AFC0D48FEF7B5FAFFF775FC4FF46E
:10348000FA60FDF7BDFCFFF7BFFEFFF703FFFFF794
:1034900047FF00BFFFF7D4FEFFF718FFFFF75CFF01
:1034A0000A20FDF7ADFCF5E72C0100207401002097
:1034B00038B504000A467BD0002A79D0207831281C
:1034C0000BD0322862D0332873D050A0FFF7D2FE41
:1034D0002046FFF7CFFE55A08BE0022A68D3607824
:1034E0004FF49671032A0DD3A1786422303911FB71
:1034F00002F14FF47A72914201DD114602E0002997
:1035000000DA0021303807283ED2DFE800F0040D51
:10351000151D252D3500002003460246014600906A
:10352000FFF762F942A064E00B460A4601200091D1
:10353000FFF75AF943A05CE00B460A4602200091CF
:10354000FFF752F945A054E00B460A4603200091CC
:10355000FFF74AF947A04CE00B460A4604200091C9
:10356000FFF742F94AA044E00B460A4605200091C5
:10357000FFF73AF94DA03CE00B460A4606200091C1
:10358000FFF732F950A034E056A032E002293BD3D5
:103590006078C82164223138052829D2DFE800F09C
:1035A000030A0F171F0013461146012000920AE07C
:1035B0002AE022E013461146022000920BE00B465F
:1035C0000A4603200091FFF70FF950A011E00B46C7
:1035D0000A4604200091FFF707F954A009E00B46C2
:1035E0000A4600200091FFF7FFF858A0FFF788FE79
:1035F00058A0BDE83840FFF73DBE62A0FFF73AFE95
:10360000BDE83840FFF7BABB38BD000052656365BE
:1036100069766564205261737062657272792050B8
:1036200069207369676E616C3A2000000A0000002F
:103630005261737062657272792050693A205374D6
:103640006F700A00526173706265727279205069FE
:103650003A20466F72776172640A0000526173709B
:1036600062657272792050693A204261636B7761BA
:1036700072640A00526173706265727279205069D7
:103680003A204D6F7665204C6566740A0000000094
:103690005261737062657272792050693A204D6F81
:1036A00076652052696768740A0000005261737081
:1036B00062657272792050693A20526F7461746544
:1036C000204C6566740A0000526173706265727204
:1036D000792050693A20526F74617465205269678D
:1036E00068740A0052617370626572727920506961
:1036F0003A20556E6B6E6F776E206D6F7665206425
:103700006972656374696F6E0A00000052617370BC
:1037100062657272792050693A2043616C69627205
:10372000617465204C6566740A0000005261737014
:1037300062657272792050693A2043616C696272E5
:103740006174652052696768740A000046455443F5
:10375000480A000052617370626572727920506984
:103760003A20556E6B6E6F776E2063616C69627282
:103770006174696F6E20646972656374696F6E0A43
:1037800000000000526173706265727279205069A6
:103790003A205374617274204C696E6520466F6CD8
:1037A0006C6F77696E670A0070B5040040D02078AE
:1037B00000283DD01FA0FFF75DFD2046FFF75AFD12
:1037C00020A0FFF757FD002503E06D1CADB2642D6E
:1037D00006D2605D0A2803D00D2801D00028F4D15C
:1037E000681E63281ED22178312909D032290AD0D7
:1037F00033290DD014A0FFF73DFD2946204604E0F3
:10380000651C1EA006E081B2601CFFF751FE09E0B6
:10381000651C22A0FFF72EFD2846FFF72BFD27A0F1
:10382000FFF728FD2046BDE870406421FCF7B2BDDB
:1038300070BD0000526563656976656420646174DB
:10384000613A20000A000000556E6B6E6F776E20A3
:103850007369676E616C20736F757263652C207479
:103860007279696E6720746F2070726F636573730D
:1038700020616E797761790A000000005265636506
:103880006976656420736572766F20626F61726419
:10389000207369676E616C3A2000000052656365B1
:1038A0006976656420616E6F74686572204D43555A
:1038B000207369676E616C3A200000000A00000006
:1038C0004FF04070E1EE100A704700061016000637
:1038D00010160000000000000000010203040607AB
:1038E0000809000000000102030400000C39000870
:1038F0000000002030000000C40100083C3900082E
:1039000030000020400C0000E00100080000000032
:103910000000000000000000010000001000000096
:10392000000000000024F40000000000000000007F
:0C3930000000000000000000000000008B
:040000050800018965
:00000001FF
