:020000040800F2
:10000000D01200204D0200081F2E00083D290008D4
:100010001D2E0008EB0400087D35000800000000DC
:10002000000000000000000000000000232E000877
:100030009305000800000000212E0008252E00086E
:1000400067020008670200086702000867020008EC
:1000500067020008670200086702000867020008DC
:1000600067020008670200086702000867020008CC
:1000700001050008670200080D0500086702000876
:1000800067020008670200086702000867020008AC
:10009000ED040008F5040008670200086702000884
:1000A000670200086702000867020008670200088C
:1000B000670200086702000867020008670200087C
:1000C000670200086702000867020008670200086C
:1000D00067020008653500086702000871350008EE
:1000E000670200086702000867020008670200084C
:1000F000670200086702000867020008670200083C
:10010000670200086702000867020008670200082B
:100110006702000867020008DD2E00086702000879
:100120006702000867020008190500086702000856
:1001300067020008670200086702000867020008FB
:1001400067020008670200086702000867020008EB
:10015000670200086702000825050008670200081A
:1001600067020008670200086702000867020008CB
:10017000670200086702000867020008000000002C
:10018000670200086702000800F002F800F04EF86D
:100190000AA090E8000C82448344AAF10107DA45E2
:1001A00001D100F043F8AFF2090EBAE80F0013F0E6
:1001B000010F18BFFB1A43F0010318471049000054
:1001C000304900000A4410F8014B14F00F0508BF35
:1001D00010F8015B240908BF10F8014B6D1E05D013
:1001E00010F8013B6D1E01F8013BF9D1641E03D0EC
:1001F000641E01F8015BFBD19142E4D3704700001B
:100200000023002400250026103A28BF78C1FBD81F
:10021000520728BF30C148BF0B6070471FB504F0BC
:1002200041FB00F007F91FBD10B510BD00F02FF91C
:100230001146FFF7F3FF04F06DFA00F04DF903B437
:10024000FFF7F2FF03BC00F013F9000009488047F4
:1002500009480047FEE7FEE7FEE7FEE7FEE7FEE7A8
:10026000FEE7FEE7FEE7FEE704480549054A064BC0
:1002700070470000CD2E000889010008D00C002036
:10028000D0120020D00E0020D00E002053EA020C25
:1002900000F069802DE9F04B4FF00006002B1FBFE6
:1002A000B3FA83F503FA05F424FA05F65E4012BFAB
:1002B0001643B2FA82F502FA05F4C5F120051EBF15
:1002C00022FA05FC44EA0C04203556EA044C4FEAB5
:1002D000144418BF641C4FF000084FF0000990420E
:1002E00071EB030C39D3002919BFB1FA81F701FA78
:1002F00007F6B0FA80F700FA07F6C7F120071EBF2D
:1003000020FA07FC46EA0C062037B6FBF4FCA7EB04
:100310000507103F07F01F0BCBF120062CFA06F65D
:100320000CFA0BFB44BFB3460026202FA4BF5E4649
:100330004FF0000B5BEA060C08BF4FF0010B19EB06
:100340000B0948EB0608ABFB027C06FB02CC0BFB5F
:1003500003CCC01B71EB0C01C1E70B4602464146C2
:100360004846BDE8F08B13B54FF000004FF0000198
:10037000AFF30080BDE81C40704710B5203AC0F0D4
:100380000B80B1E81850A0E81850B1E81850A0E868
:100390001850203ABFF4F5AF5FEA027C24BFB1E801
:1003A0001850A0E8185044BF18C918C0BDE8104044
:1003B0005FEA827C24BF51F8043B40F8043B08BF4D
:1003C0007047D20728BF31F8023B48BF11F8012B14
:1003D00028BF20F8023B48BF00F8012B70474FF0C0
:1003E000000200B5134694469646203922BFA0E885
:1003F0000C50A0E80C50B1F12001BFF4F7AF090791
:1004000028BFA0E80C5048BF0CC05DF804EB890081
:1004100028BF40F8042B08BF704748BF20F8022BC4
:1004200011F0804F18BF00F8012B704770477047DC
:100430007047000070B5064C7C44064D7D4403E0D7
:10044000206820448047241DAC42F9D170BD0000D3
:10045000B0460000B846000010B500F00FF8006884
:1004600010BD10B5044600F009F8046010BD00008E
:1004700001491820ABBEFEE7260002000048704785
:100480004002002000487047400200207047754637
:10049000FFF7F8FFAE4605006946534620F0070017
:1004A000854618B020B5FFF7DFFEBDE820404FF0CD
:1004B00000064FF000074FF000084FF0000BAC466D
:1004C000ACE8C009ACE8C009ACE8C009ACE8C009B8
:1004D00021F007018D46704710B50446AFF3008048
:1004E0002046BDE81040FFF7AABEFEE7034800F033
:1004F000A1B900BF014800F09DB900BF280A002043
:10050000014800F02FBC00BF80030020014800F02C
:1005100029BC00BFE0030020014800F023BC00BF5D
:10052000A0020020014800F01DBC00BF20030020F5
:1005300001686FF00F0240F2FF3352FA81F29943E3
:1005400018235F2AB2FBF3F204A39A5C88BF41F040
:1005500004018165C2650846704700BF0006101699
:100560000006101680B5D0F800C0DCF800E02EF4CC
:10057000802ECCF800E0CCF8043080684028084693
:1005800008BF1046CCF8080008BF0A46CCF80C207B
:1005900080BD7047EFF3108072B6FEE710B590F89B
:1005A0002040D0F800C0013CDCF808E0E4B2012CA7
:1005B0000DD81EF0E05F10D0CEF3016EBEF1030F38
:1005C00011D100F1240101204FF4000233E000F1C9
:1005D000240101204FF480222DE000F124010120AC
:1005E0004FF4001227E0012000FA0EF0186088682E
:1005F000002819BF4B6840EAC30308684305CC686C
:100600000CEB0E102343C0F880310B69C0F8843125
:10061000097D012905D100F5C2710B6843F480738F
:100620000B605168C0F88C1111680122C0F8881164
:1006300000F5C07100200B681A430A6010BD00006D
:1006400090F82020013AD2B2012A2BD8B0B5334815
:10065000026842F001020260026822F47C520260E9
:100660004A6A036843EA0222012302604C6904F0EB
:100670001F0203FA02F2C3696FEA020C9343C361DB
:10068000CB69012B14D043BBC36800EBC40E03EA53
:100690000C03C360CB688D8845EA0343CEF8403035
:1006A0008E4612E0416A41F4802141620120704788
:1006B000C36800EBC40E1343C3600D688B8843EA24
:1006C0000543CEF8403001F10C0E00EBC4038C68FA
:1006D000BEF8005045EA04455D648B69456845EA0B
:1006E0000204002B08BF05EA0C0444600B6945694D
:1006F00045EA0204002B08BF05EA0C044461096ABC
:100700000129BDE8B04002BFC1691143C161016860
:1007100021F0010101600020704700BF0066004029
:10072000704710B590F82040013CE4B2012C72D81B
:10073000D0F800C000290CBFDCF80C40DCF81040F9
:1007400014F0030F6DD00CEB011CDCF8B0410CF57C
:10075000D87E14F004049460DCF8B04119BFE408BA
:100760005460640D14600029DEF8004004F00204B7
:10077000D460DCF8B44104F00F041461DCF8B44137
:10078000C4F307249461DCF8B4414FEA1444546183
:10079000DCF8B8211A70026802EB0112D2F8B82115
:1007A0004FEA12225A70026802EB0112D2F8B82105
:1007B0004FEA12429A70026802EB0112D2F8B82195
:1007C0004FEA1262DA70026802EB0112D2F8BC2121
:1007D0001A71026802EB0112D2F8BC214FEA122210
:1007E0005A71026802EB0112D2F8BC214FEA1242A0
:1007F0009A71026802EB0112D2F8BC214FEA126230
:10080000DA714FF0200200680CBF00F10C0100F11A
:10081000100100200AE000F1240101204FF48022A1
:1008200004E000F1240101204FF400120B681A4388
:100830000A6010BD2DE9F84F044600684669D0F8FB
:1008400004908768D0F80CB0D0F810A0D0F81880C9
:1008500016F0010F01D1002549E0F9070ED0012162
:100860008160B80707D478071DD4380721D4204603
:1008700000F01DFA02E0204600F01AFA0025F80503
:100880001CD520684FF480718160B80507D47805C5
:100890000CD4380510D4204600F00BFA0EE02046A8
:1008A00000F008FA0AE04FF40065E8E745F4005567
:1008B00004E04FF48055E2E745F48045F80316D58F
:1008C00020684FF480318160B80307D4780309D4DD
:1008D00038030AD4204600F0EEF908E0204600F084
:1008E000EBF904E045F4004501E045F480353007BC
:1008F00007D51BF0100004D02068102145F40075C6
:10090000C160700708D51BF0080005D020680821D9
:10091000C160204600F054F9B00707D52068C068D0
:1009200010F0030F02D0204600F04CF9700607D5F6
:100930001AF0100004D02068102145F48065016190
:10094000B00608D51AF0080005D02068082101611A
:10095000204600F057F9F00607D52068006910F02E
:10096000030F02D0204600F04FF9B00308D519F06C
:10097000100005D0206810214160204600F06AF97F
:10098000F00308D519F0080005D02068082141605F
:10099000204600F092F9300425D55FEA49701FD552
:1009A00006F4807018F0020F08EA102040EA0500F3
:1009B000014618BF41F0020116F4007F08BF01464E
:1009C00018F0040F0D4618BF45F0040516F4806FAB
:1009D00008BF0D4616F4006F18BF18F070000DD157
:1009E0002068042141603DB1606A2843606220466E
:1009F000BDE8F84FFFF794BEBDE8F88F1038000946
:100A0000052815D8DFE800F00306090C0F1245F0A1
:100A100008050DE045F010050AE045F0200507E067
:100A200045F0400504E045F0800501E045F480759F
:100A30002068816921F070018161D1E7B0B5044679
:100A4000C0B194F8200010B9204600F075F8206875
:100A5000016841F00101016000F0E2FB05462068F9
:100A6000416811F0010F07D100F0DAFB401B0B28A1
:100A7000F5D312E00120B0BD016821F00201016050
:100A800000F0CEFB05462068416811F0020F0BD044
:100A900000F0C6FB401B0B28F5D3606A052140F42B
:100AA00000306062012044E0217E026822F0800371
:100AB000012908BF42F080030360617E026822F0D2
:100AC0004003012908BF42F040030360A17E026891
:100AD00022F02003012908BF42F020030360E17ED9
:100AE000026842F01003012908BF22F010030360DE
:100AF000217F026822F00803012908BF42F00803A1
:100B00000360617F026822F00403012908BF42F0FC
:100B100004030360D4E901C2D4E9033561691A43CF
:100B20002A431143ACF101021143C16100200121AC
:100B3000606284F82010B0BD10B586B0044601A8EC
:100B40001421FFF74CFC21683F48814234D1002139
:100B50001A4A00F5CE300091136943F00073136117
:100B6000136903F000730093009B0091136843F036
:100B700001031360126802F001020092009A02223F
:100B800002924FF4C0520192039103210491092172
:100B9000059101A900F06EFA14200021002200F056
:100BA000ABFB142000F09AFB15200021002200F07E
:100BB000A3FB152000F092FB06B010BD30380240B8
:100BC0007047000000682049884200D0704710B587
:100BD0001E4C0021204602F0EBFD606840F205212A
:100BE0008842BDE8104007D040F20121884218BF7A
:100BF0007047174803F0DCBB154800F5827003F01E
:100C0000D7BB00BF7047000000680F49884200D082
:100C1000704710B50D4C0121204602F0C9FD6068F7
:100C200040F205218842BDE8104007D040F2012182
:100C3000884218BF7047064803F0BABB044800F565
:100C4000827003F0B5BB00BF006400400C000020C0
:100C5000200800207047B0B5044690F82000012815
:100C60001CD1022084F820002068016821F00101D5
:100C7000016000F0D5FA05462068406810F0010FC9
:100C800012D000F0CDFA401B0B28F5D3606A40F477
:100C900000306062052084F8200003E0606A40F4C0
:100CA000002060620120B0BD00206062B0BD7047CE
:100CB00070477047704770477047704770B5866DD2
:100CC000044600F0ADFA054694F83500022829D113
:100CD0002068016821F016010160416921F080015E
:100CE0004161216C09B9A16C19B1016821F00801B9
:100CF0000160016821F00101016005E000F090FA57
:100D0000401B052812D82068006810F0010FF5D1AB
:100D1000E06D3F2101FA00F0B060012084F8350059
:100D2000002008E080206065012004E0202060654C
:100D3000032084F835000021C0B284F8341070BD5F
:100D400090F83510022909D1052180F83510006886
:100D5000016821F001010160002070478021416598
:100D600001207047F8B504460020082100905C4837
:100D70000568D4E916603768814039420DD0226891
:100D8000136813F0040F08D0136823F004031360F2
:100D9000B160616D41F0010161650121814039421D
:100DA00009D02268526912F0800F04D0B160616DE1
:100DB00041F00201616504218140394209D0226875
:100DC000126812F0020F04D0B160616D41F00401AD
:100DD000616510218140394219D02068026812F003
:100DE000080F14D0B1600268016812F4802F06D198
:100DF000C9055EBF016821F00801016001E0080338
:100E000001D4216C00E0A16C09B120468847E16D56
:100E1000202000FA01F23A423CD02068036813F027
:100E2000100F37D0B26094F835300268052B19D115
:100E300022F016020260426922F080024261226CB6
:100E40000AB9A26C1AB1026822F0080202603F20BF
:100E50008840B060002084F83400012084F8350018
:100E6000216D39E0016852030CD4C9050ED4016824
:100E700021F010010160002084F83400012084F882
:100E8000350003E0080301D4616C00E0E16B09B1B7
:100E900020468847606D10B3606D10F0010F1AD0C6
:100EA00005214FF4165084F83510B5FBF0F0216899
:100EB0000A6822F001020A60009A0132824200921E
:100EC00003D80A6812F0010FF6D1002084F834002C
:100ED000012084F83500E16C09B120468847F8BD4F
:100EE000340000202DE9F041044600F099F9054650
:100EF000002C4FD0002084F83400022084F8350004
:100F00002068016821F00101016005E000F088F926
:100F1000401B052840D82068016811F0010FF5D169
:100F200001683A4AD4E9013504F10C0801EA020CDF
:100F300098E8C201D4E9072E43EA0C032B43194376
:100F4000636A31433943042B41EA080141EA020153
:100F500041EA0E0224D1D4E90BE142EA0E02BEF1CD
:100F6000000F41EA0201016050F8141FA56A21F048
:100F7000070141EA050141F0040C18D0B8F5005F03
:100F800026D0B8F1000F36D1022D37D0012D2CD04C
:100F9000A5B30CE0012218E003232021032220E066
:100FA000026050F8141F21F0070141EA030CC0F859
:100FB00000C02046FFF7BCFAE16D3F22012302FA90
:100FC00001F10022816000210BE0D0B2BDE8F08188
:100FD000032DECD8012340210122DFE805F0020FA8
:100FE0000206616584F83530EFE7AEF1C071B1FA01
:100FF00081F1490904E0032D04D3D8D1CEF3006177
:101000000029D4D0012340210122EAE73F8010F0DB
:10101000B0B5044690F83400012828D00120A56D11
:1010200084F8340094F8350001281DD1022084F89A
:101030003500002060652046FFF794FAE06D3F21FF
:1010400001FA00F0A8602068016841F01601016013
:10105000216C19B1016841F008010160016841F09B
:1010600001010160002003E0002084F83400022028
:10107000C0B2B0BD2DE9FC4F5F4A08274FF001090F
:101080004FF0030A4FF0000B4FF0000E0026904285
:101090005A4A08BF072702444FEAB223072B38BF3A
:1010A0004FEAB2270097102E08BFBDE8FC8F0C68EE
:1010B00009FA06F31C4200F098804D6805F003041D
:1010C000671E012F15D8D0F808C00AFA0EF72CEACF
:1010D000070CCF6807FA0EF747EA0C078760C5F3DD
:1010E000001707FA06FC47689F4347EA0C0747606A
:1010F00001E0032C1DD0C2680AFA0EF7022C22EA86
:1011000007028F6807FA0EF742EA0702C26010D1A1
:101110003E4C0BF01C020F27974004EA560505448D
:101120002C6A24EA07070C6904FA02F23A432A629D
:101130004D68046805F003020AFA0EF715F4403F03
:1011400002FA0EF224EA070742EA070202604CD0D4
:1011500000222B4C0BF00C0501922B4AA44617469B
:10116000126842F480423A603A6802F48042019286
:1011700026F003022244264C019FA04617590F2453
:10118000AC40A743009C04FA05F52F4342F80870D1
:10119000DCF808204D6842EA030715F4801F08BFF9
:1011A00022EA0307174A15F4001FCCF8087014460A
:1011B000126842EA030708BF22EA030715F4003F5A
:1011C0002760DCF8042042EA030708BF22EA03078D
:1011D00015F4803FCCF80470DCF8002042EA0307E5
:1011E00008BF22EA0307CCF800700BF1040B0EF1E4
:1011F000020E013657E700BF001C02400000FEBF90
:10120000003C01400C3C014044380240FCFFFF7FA1
:1012100008FCFFFF002A08BF090481617047000035
:101220001F488068704700BF1D48017882681144DC
:101230008160704780B50B48016841F4007101601E
:10124000016841F480610160016841F480710160CE
:10125000032000F073F80F2000F006F800F022F8E9
:10126000002080BD003C024070B50D4E04464FF496
:101270007A713078B1FBF0F08E490968B1FBF0F07B
:1012800000F00CFB01250F2C08D838B94FF0FF30C7
:1012900021460022002500F02FF87460284670BD1A
:1012A0000000002082B000200B4901904A6842F4FF
:1012B00080424A604A6802F480420192019A00909A
:1012C000086840F080500860086800F08050009086
:1012D000009802B0704700BF40380240002808DB89
:1012E00000F01F010122400902FA01F1014A42F80F
:1012F0002010704700E100E010B5164B1B68C3F3E7
:10130000022E0EF1040CAEF103048EF00703BCF1C3
:10131000070F4FF0010C38BF0024042B28BF042313
:101320000CFA03F3013B19400CFA04F3013BA14012
:101330001A401143BDE8104003F0DAB905494FF6F1
:10134000FF030A681A4060F30A220348104308604A
:10135000704700BF0CED00E00000FA052DE9F041F8
:1013600088460446002800F08780454BD3F80004E7
:1013700000F00700404507D283F80084D3F800044A
:1013800000F00700404577D1206810F0020F11D01F
:10139000410742BF996841F4E0519960010742BF9B
:1013A000996841F4604199609968A26821F0F00160
:1013B00011439960C0072DD06068811E022904D2B4
:1013C000196811F0007F0BD156E0012804D119688B
:1013D00011F4003F04D14FE0196811F0020F4BD017
:1013E00099681D4621F0030108439860FFF718FF34
:1013F000064641F28837A86861682B4600F00C0069
:10140000B0EB810F06D0FFF70BFF801BB842F2D97B
:10141000032032E0D3F8000400F00700404507D96C
:1014200083F80084D3F8000400F00700404523D17E
:10143000206810F0040F05D09968E26821F4E051AB
:1014400011439960000706D59868216920F460402F
:1014500040EAC10098601C4600F032F8A168094AD1
:10146000C1F30311515CC840124908600648006886
:10147000FFF7FAFE002000E00120C0B2BDE8F081D5
:1014800000380240B44900080400002009480A4915
:101490000A4A00680968C1F38221515CC84070475C
:1014A00004480549054A00680968C1F34231515CA6
:1014B000C84070473400002008380240C449000882
:1014C00010B5F34C606800F00C011248082904D0F4
:1014D000042904BF104810BD10BD2168236801F025
:1014E0003F02216813F4800FC1F3881105D1A1FBDD
:1014F00000010023FEF7CAFE03E007484843B0FBA3
:10150000F2F021680222C1F3014102EB4101B0FB7C
:10151000F1F010BD0024F40000127A002DE9F84328
:101520000446002800F065812078D84ED84FC007C7
:10153000B14654D0786800F00C00042807D1306818
:1015400010F4003F4BD06068002848D151E1786822
:1015500000F00C00082803D1386810F4800FEED199
:101560006668B6F5803F09D0D9F80000C846B6F5E0
:10157000A02F17D140F48020C8F80000D9F800004F
:101580004E4640F48030C9F80000FFF749FE05469A
:10159000306810F4003F22D1FFF742FE401B642860
:1015A000F6D9C3E020F48030C8F80000D8F8000075
:1015B00020F48020C8F80000FFF732FE002E054618
:1015C0004646E5D1D9F800004E4610F4003F06D05B
:1015D000FFF726FE411B03206429F3D90AE1207896
:1015E00080072FD5786810F00C0F08D0786800F0CD
:1015F0000C0008280BD1386810F4800F07D1306830
:1016000010F0020F17D0E068012814D0F1E0E06874
:10161000002800F08D809F4801210160FFF700FE47
:101620000546306810F0020F05D1FFF7F9FD401BA9
:101630000228F6D97AE03068216920F0F80040EA03
:10164000C10030602078000722D56169914879B1E6
:101650000121C0F8801EFFF7E3FD0546386F10F04A
:10166000020F15D1FFF7DCFD401B0228F6D95DE023
:101670000021C0F8801EFFF7D3FD0546386F10F03B
:10168000020F05D0FFF7CCFD401B0228F6D94DE034
:101690002078400740F18080F86B4FF0000810F090
:1016A000805F0CD1CDF800804FF00108F86B40F05E
:1016B0008050F863F86B00F0805000900098764EF0
:1016C000484659F8060010F4807F14D159F80600F6
:1016D00040F4807049F80600FFF7A2FD0546484631
:1016E00059F8060010F4807F05D1FFF799FD401BE3
:1016F0000228F4D91AE0A668012E05D0F86E052E4E
:101700002AD140F00400F866F86E40F00100F86657
:10171000FFF786FD054641F28836F86E10F0020F9D
:1017200033D1FFF77DFD401BB042F6D9032061E0C5
:10173000584800210160FFF773FD05464846D9F877
:10174000000010F0020F3FF47DAFFFF769FD411B71
:1017500003200229F2D94DE020F00100F866F86E6E
:1017600020F00400F866FFF75BFD0546002ED2D19D
:1017700041F28836F86E10F0020F06D0FFF750FDE8
:10178000411B0320B142F5D934E0B8F1000F1EBF70
:10179000F86B20F08050F863A669002E74D078684A
:1017A00000F00C00082829D1012E22D03868E16908
:1017B00000F480028A421CD1216A00F03F028A4272
:1017C00017D147F6C071626A0140B1EB821F10D198
:1017D000A16A4FF6FF72C903914300F44032A1F5AC
:1017E00080318A4205D1E16A00F07060B0EB016F90
:1017F0004AD00120C0B201B0BDE8F08325490020E5
:1018000088460866FFF70CFD0546022E0CD14846B7
:10181000D9F8000010F0007F13D0FFF701FD411B45
:1018200003200229F3D9E5E74846D9F8000010F073
:10183000007F29D0FFF7F4FC411B03200229F3D9D4
:10184000D8E704F11C064FCE0843D90340EA8210C2
:101850004FF6FF72914340EA0660A1F580310843DC
:1018600038600120C8F86000FFF7DAFC04464846FB
:10187000D9F8000010F0007F06D1FFF7D1FC011B62
:1018800003200229F3D9B5E70020B3E7003802406E
:1018900004380240000047420038FEFF411E00208D
:1018A000B0EB116F1CBF01207047044AF023516058
:1018B00003490B70072190601160704710E000E051
:1018C00023ED00E07047704790F83C20012A01D1D9
:1018D00002211FE0B0B501F10805D1E900CE3CCDF1
:1018E000C96923F47C5322F470521A432EF4F04356
:1018F0001A432CF4E0431A4324F4C0431A432A4306
:1019000022F48042114302685164002180F83C10A7
:10191000BDE8B040C8B2704790F83C300222012BBD
:1019200035D010B580F83D20012280F83C200268B7
:10193000D2F804E0D2F808C00C68B2F1804F2EF063
:10194000700343EA04035360BDE8104014D0584BC1
:101950009A4211D0574B9A420ED0574B9A420BD015
:10196000564B9A4208D0564B9A4205D0554B9A4254
:1019700002D0554B9A4204D149682CF08003194398
:1019800091600022012180F83C2080F83D10D0B207
:10199000704700BF10B5044630B394F83D0028B935
:1019A000002084F83C00204600F020F80220211D91
:1019B00084F83D00206801F097FA012084F8460081
:1019C00084F83E0084F83F0084F8400084F8410029
:1019D00084F8420084F8430084F8440084F8450009
:1019E00084F83D00002010BD012010BDE0B5006866
:1019F0003549884219D01349884218BF8CBD002050
:101A0000002201901048016841F01001016000219E
:101A1000006800F01000019001983620FFF76CFC80
:101A20003620BDE88C40FFF759BC002000900648E6
:101A3000416841F002014160406800F002000090FE
:101A400000988CBD001000404038024090F83D10D6
:101A500001291CBF01207047022180F83D10006859
:101A6000C168B0F1804F41F00101C16014D010494C
:101A7000884211D00F4988420ED00F4988420BD0BE
:101A80000E49884208D00E49884205D00D49884247
:101A900002D00D49884204D1816801F0070106296E
:101AA00003D0016841F0010101600020704700BFD0
:101AB0000004004000080040000C004000180040F6
:101AC00000000140004001400004014010B590F8C2
:101AD0003C2004460220012A70D084F83D000120F9
:101AE0004FF6777384F83C00206882689A438260DE
:101AF0000A6812B3102A20D0202A1ED0302A1CD007
:101B0000402A21D0502A2BD0602A35D0B2F5005F70
:101B10003ED0B2F5805F4AD0702A51D1D1E901237D
:101B2000C9681A4342EA0121826822F47F421143C4
:101B30008160816841F0770138E0816821F07701A8
:101B4000114341F0070131E04B68CA68194601F0C2
:101B5000FDFA2068816821F0770141F0470125E016
:101B60004B68CA68194601F0F1FA2068816821F0D3
:101B7000770141F0570119E04B68CA68194601F036
:101B8000F6FA2068816821F0770141F067010DE0E5
:101B9000D1E90123C9681A4342EA0121826822F48B
:101BA0007F4211438160816841F48041816000205F
:101BB000002184F83C10012184F83D10C0B210BD12
:101BC0000120F5E72DE9F84F0D46044600284DD0D9
:101BD00094F83D0028B9002084F83C00204600F02D
:101BE00049F8022044F2070284F83D002068816829
:101BF00091438160211D01F077F920688168D0F858
:101C000018A0D0F820C0D5E9003ED5E902B7D5E943
:101C10000489D5E9062619432B6A4BEA02224FF6BE
:101C2000FC4581604FF6FF71AA432AEA010139435E
:101C3000114341EA062141EA081141EA0331816179
:101C40002CF0AA0141EA0E0141EA091101620120CA
:101C500084F8460084F83E0084F83F0084F842008F
:101C600084F8430084F83D00002000E0012001B02A
:101C7000BDE8F08F2DE9F04186B0044601A814219B
:101C8000FEF7ADFB206800F140404FEAB02003288A
:101C900000F29580DFE800F0023E51720026F04825
:101CA000484C4FF0020801AD01270096016941F050
:101CB00001010161016901F00101009100990096A3
:101CC000016841F001010160016801F0010100912A
:101CD00000990096016841F0020101602946006800
:101CE00000F0020000900098CDF808804FF400400A
:101CF00001902046CDE903660597FFF7BBF9082060
:101D0000CDF8088029460190CDE90366059704F5D2
:101D1000806052E00020D24900900A6942F002023D
:101D20000A610A6902F002020092009A00900A68B1
:101D300042F001020A60C02232E00020C84900904F
:101D40000A6942F004020A610A6902F00402009280
:101D5000009A00900A6842F002020A60C0220968F4
:101D600001F0020100910099022102910192CDE956
:101D700003001448059100F580601DE00020B8497B
:101D800000900A6942F008020A610A6902F008023A
:101D90000092009A00900A6842F001020A60032251
:101DA000096801F00101009100990221029101925C
:101DB000039004900348059101A9FFF75BF906B071
:101DC000BDE8F0810000024010B590F83E3090F878
:101DD0003F2090F842E090F843C0044601200429D7
:101DE0000BD0A9B9012B08BFBEF1010F39D10220D8
:101DF00084F83E0084F8420028E0012A08BFBCF1C4
:101E0000010F2ED1022084F83F0084F843001AE02D
:101E1000012B08BF012A24D1BEF1010F21D1BCF151
:101E2000010F18BF10BD0220002984F83E0084F87D
:101E30003F0084F8420084F8430007D02068002166
:101E4000012201F0B7F82068042101E02068002198
:101E5000012201F0AFF82068016841F00101016042
:101E6000002010BD704710B504460068016911F0EC
:101E7000020F19D0C16811F0020F15D06FF00201E6
:101E8000016101212177806910F0030F03D0204602
:101E9000FFF7E8FF05E0204600F0E6F8204600F0F6
:101EA00075F9002020772068016911F0040F19D01E
:101EB000C16811F0040F15D06FF004010161022117
:101EC0002177806910F4407F03D02046FFF7CAFFD6
:101ED00005E0204600F0C8F8204600F057F9002041
:101EE00020772068016911F0080F19D0C16811F03E
:101EF000080F15D06FF00801016104212177C06936
:101F000010F0030F03D02046FFF7ACFF05E020469A
:101F100000F0AAF8204600F039F900202077206868
:101F2000016911F0100F19D0C16811F0100F15D010
:101F30006FF01001016108212177C06910F4407F22
:101F400003D02046FFF78EFF05E0204600F08CF816
:101F5000204600F01BF9002020772068016911F06D
:101F6000010F0AD0C16811F0010F06D06FF0010116
:101F70000161204600F080F92068016911F0800FAE
:101F80000AD0C16811F0800F06D06FF080010161A6
:101F90002046FFF797FC2068016911F0400F0AD036
:101FA000C16811F0400F06D06FF04001016120467A
:101FB00000F0AAF92068016911F0200F08BF10BDD8
:101FC000C16811F0200F00D110BD6FF02001016138
:101FD0002046BDE81040FFF776BC000010B586B083
:101FE000044601A81421FEF7FAF92068A0498842A6
:101FF00019D0A049884230D10020194900900A68C0
:1020000042F004020A60096801F00401009100999D
:10201000022102914FF470710191CDE90300032078
:102020000590104816E000200D4900900A6842F023
:1020300010020A60096801F0100100910099022164
:10204000029120210191CDE903000320059005486C
:1020500000F5006001A9FFF70DF806B010BD00BF44
:10206000303802400008024070470000B0B5044616
:1020700090F83C000D46012801D1022041E04FEAD2
:10208000B2010120032984F83C0037D8DFE801F0D1
:10209000020A12222068294600F09CFF206850F8AE
:1020A000181F0EE02068294600F0C4FF206850F891
:1020B000181F16E02068294600F0EEFF206850F84F
:1020C0001C1F41F008010160016821F0040101605A
:1020D00029690FE02068294601F010F8206850F8BF
:1020E0001C1F41F400610160016821F480610160FE
:1020F000296909020268114301600020002184F867
:102100003C10C0B2B0BD10B5044630B394F83D00E9
:1021100028B9002084F83C00204600F021F8022075
:10212000211D84F83D00206800F0DEFE012084F8C7
:10213000460084F83E0084F83F0084F8400084F8AC
:10214000410084F8420084F8430084F8440084F895
:10215000450084F83D00002010BD012010BD0000A6
:1021600000684349884218BF704781B00020009042
:102170000548016841F480310160006800F4803056
:102180000090009801B0704744380240704700004A
:1021900070B5044641B1082909D0042914BF04F1DF
:1021A000410004F13F0004E004F13E0001E004F1CD
:1021B0004000007801281CBF012070BD022041B101
:1021C000082909D0042914BF84F8410084F83F008D
:1021D00004E084F83E0001E084F840002068012219
:1021E00000F0E8FE2068B0F1804F1FD01B49884204
:1021F0001CD01B4A904219D01A4B984216D01A4C48
:10220000A04213D0194DA84205D0194EB0420DD0AE
:10221000184EB0420FD1466CB0F1804F46F40046E4
:10222000466403D0884218BF90420AD1816801F009
:102230000701062903D0016841F001010160002077
:1022400070BD9842F2D0A042F0D0A842EED008492A
:102250008842EBD007498842E8D0ECE70004004010
:1022600000080040000C0040001800400000014041
:1022700000400140000401401E490068096888428E
:1022800018BF7047F8B54248642101F097FB1A4C1B
:102290006421204602F00AF804F58275642128467C
:1022A00002F004F8154E304601F02EFF144F304670
:1022B000B84706F19C00B84706F59C70B84706F58C
:1022C000EA70B847204602F021F8284602F01EF8CE
:1022D00001F074FA0B4801881229BDE8F84002D8D1
:1022E000013101807047002100220180284800212F
:1022F00001F0CDBB700B00202008002068050020F5
:10230000193B0008180800207047BCB5044690F837
:102310003E00202806D1012529B122B194F83C00C5
:10232000012803D10225E8B202B0B0BD0125204644
:10233000256384F83C5001F0C9F8206B0128F2D1E4
:102340000020019020680168019141680191019984
:1023500000E0206850E8030F216840F0100041E8D9
:102360000302002AF5D10025DDE700001F4A0068BE
:102370001268904218BF704780B50548C9B201F095
:1023800033FB1B4801F035FABDE88040704700BFC1
:10239000400400201CB5044600F02CF810F0010F9A
:1023A00013D1204600F026F810F0020F0DD1204680
:1023B00000F020F810F0040F07D1204600F01AF8C2
:1023C00010F0080F01D1206807E00020019020687C
:1023D00001680191416801910199044909688842A5
:1023E00018BF1CBD024801F004FA1CBD8C0C002073
:1023F00038000020006C7047BCB5044600680268D5
:102400000146D0F80CE051F8143F12F00F0F65D0E0
:102410000EF4907503F0010C5CEA050368D0D00758
:102420001FBF1EF48070206C40F001002064500734
:1024300006D5BCF1000F1EBF206C40F002002064E6
:10244000900706D5BCF1000F1EBF206C40F00400C1
:102450002064100708D50EF0200050EA0C001EBFC3
:10246000206C40F008002064206C002800F00681F9
:102470000EEA0200800605D5204600F05DFF2068C8
:1024800000F114010868216C00F0400001F008011F
:10249000084300F0DF80204600F019FF2068416902
:1024A00011F0400F01D1D0E0206850E8050F2168FD
:1024B00020F0400041E80502002AF5D1A06B002879
:1024C00000F0C38072490165FEF73AFC002800F075
:1024D000D580A06B016DBDE8BC4008470EEA020143
:1024E00011F0200F06D02046BDE8BC4000F024BF0C
:1024F0000EEA0201226BCB063BD5012A39D100211D
:10250000019101680191416801910199416911F0BE
:10251000400F3FD1E18DA28DE38D002B00F0AE8006
:10252000511A0A0401D1A9E0206850E8030F22687B
:1025300020F4907042E80303002BF5D1206850E8A6
:10254000050F226820F0010042E80503002BF5D1B9
:10255000202084F83E0000202063206850E8030F0C
:10256000226820F0100042E80303002BF5D189B265
:1025700056E00A0659D4490640F18080C16821F02E
:102580004001C160202084F83D002046BDE8BC40E9
:1025900000F0D2B9A26B11684B6899B200296DD0D6
:1025A000B4F82CC0614569D2E385D169B1F5807F6B
:1025B00001D131E0206850E8030F216820F48070D9
:1025C00041E80302002AF5D1206850E8050F216890
:1025D00020F0010041E80502002AF5D1206850E80A
:1025E000050F216820F0400041E80502002AF5D1DE
:1025F000202084F83E0000202063206850E8030F6C
:10260000216820F0100041E80302002AF5D1A06BF8
:10261000FEF754FBB4F82CC0E08DACEB000081B2A7
:102620002046BDE8BC40FFF7A1BE94F83D1021292B
:1026300024D1A168B1F5805F01D1216981B1216AFE
:102640004A1C22620978416011E02046BDE8BC4086
:10265000FFF7A0BE2046FFF79DFE00202064BCBD12
:10266000216A31F8022B6FF35F2242602162E18C14
:102670004FF6FF7201391142E18400D0BCBDC16840
:1026800021F08001C160C16841F04001C160BCBD62
:102690009131000810B5044640B394F83D0028B9C4
:1026A000002084F83C00204600F022F8242084F822
:1026B0003D002068C16821F40051C160204600F04F
:1026C0009FFE2068016921F490410161416921F078
:1026D0002A014161C16841F40051C16000202021FC
:1026E000206484F83D1084F83E1010BD012010BD18
:1026F0002DE9F04387B0044602A81421FDF76FFED0
:1027000020686249884260D06149884240F0BB80BD
:102710000027E3480197416941F010014161416997
:1027200001F01001019101990197016841F0010147
:10273000016002A9006800F00100019001980220E8
:1027400003904FF4C0600290032004970590072087
:1027500006905048FEF78EFC504E524D4FF00068E8
:102760004FF48069142106F58360C5E9000805F17E
:102770001400C5E90277C5F81090FDF730FE284631
:10278000FEF7B0FB08B1FDF705FF06F59260464E77
:10279000A563AC634021C6E9000806F1080080E8A3
:1027A000820206F114001421FDF719FE3046FEF7EF
:1027B00099FB08B1FDF7EEFE25200021002266639B
:1027C000B463FEF799FD25205BE00027B44801972C
:1027D000016941F480210161016901F480210191C5
:1027E00001990197016841F00201016002A90068A6
:1027F00000F0020001900198022003904FF4406025
:10280000029003200497059007200690214800F5C8
:102810008060FEF72FFC204D204E4FF000694FF4F2
:102820008068142105F11400C5E90069C5E9027743
:10283000C5F81080FDF7D3FD2846FEF753FB08B11D
:10284000FDF7A8FE06F13000154EA563AC634021EC
:10285000C6E9000906F1080080E8820106F11400CB
:102860001421FDF7BCFD3046FEF73CFB08B1FDF737
:1028700091FE2720002100226663B463FEF73CFD31
:102880002720FEF72BFD07B0BDE8F083004800408D
:102890000010014000000240800300202860024038
:1028A000E0030020A00200202003002070477047B2
:1028B000B0B5044690F83D001346202805D131B14B
:1028C0002BB194F83C00012803D102202BE0012019
:1028D00029E000250120E384DFF850C0144A256474
:1028E000216284F83C002120A38484F83D00606BC1
:1028F000C0E90F2C0F4AC0E9132522680432FEF705
:1029000087FB20686FF04001016084F83C5000E0D4
:10291000206850E8050F216840F0800041E805027A
:10292000002AF5D10020C0B2B0BD00BFC9320008F6
:102930008B3200089D31000870477047FEE70000A9
:1029400080B50E480E4A022100234FF4602C4FF44C
:10295000800EC0E900214FF48071C0E90233C0E964
:1029600004CE0183C0F81A30FEF768F8002814BFBF
:10297000BDE8804080BDFDF70DBE00BF280A0020E5
:1029800000640040BCB500204549184C01900A681D
:1029900042F400120A600A6802F400120192019ADD
:1029A00000900868002240F4800008600868002158
:1029B00000F48000009000980C20A0470C4D0C20E3
:1029C000A8470E2000210022A0470E20A8473A2049
:1029D00000210022A0473A20A847462000210022DB
:1029E000A04746202946BDE8BC400847F912000828
:1029F000DD12000870B586B000252948294C002258
:102A00004FF4604605950095016841F010010160A2
:102A1000016801F01001009100990095016841F0F2
:102A200080010160016801F080010091009900952A
:102A3000016841F001010160016801F001010091AC
:102A400000990095016841F002010160016801F000
:102A50000201009100990095016841F008010160B0
:102A6000016801F00801009100990095016841F0AA
:102A7000040101604FF46041006800F00400009020
:102A800000982046FEF7C6FB012001A9CDE90160B0
:102A90002046CDE90355FEF7EDFA06B070BD00BF44
:102AA00030380240000C024010B58CB014484FF092
:102AB000804100244FF6FF72C0E900140321C0E9F1
:102AC000024204618461CDE90044CDE9031401218F
:102AD000CDE90514CDE90744CDE9091403A90B9408
:102AE000FFF770F808B1FDF755FD05486946CDE9D7
:102AF0000044FEF711FF08B1FDF74CFD0CB010BD0E
:102B0000500A002010B58CB01448154900244FF627
:102B1000FF72C0E900140321C0E90242046184612C
:102B2000CDE90044CDE903140121CDE90514CDE937
:102B30000744CDE9091403A90B94FFF743F808B142
:102B4000FDF728FD05486946CDE90044FEF7E4FE9F
:102B500008B1FDF71FFD0CB010BD00BF980A0020A2
:102B60000004004010B58CB01448154900244FF6FD
:102B7000FF72C0E900140321C0E9024204618461CC
:102B8000CDE90044CDE903140121CDE90514CDE9D7
:102B90000744CDE9091403A90B94FFF713F808B112
:102BA000FDF7F8FC05486946CDE90044FEF7B4FEA0
:102BB00008B1FDF7EFFC0CB010BD00BFE00A00202B
:102BC0000008004010B58CB01448F24900244FF6BC
:102BD000FF72C0E900140321C0E90242046184616C
:102BE000CDE90044CDE903140121CDE90514CDE977
:102BF0000744CDE9091403A90B94FEF7E3FF08B1DC
:102C0000FDF7C8FC05486946CDE90044FEF784FE9F
:102C100008B1FDF7BFFC0CB010BD00BF280B0020B1
:102C20001CB5B0480C495322002440F2E73380E839
:102C30001600C3608461CDE90044FEF7ABFE08B125
:102C4000FDF7A8FCA7486946CDE90044FEF764FEFD
:102C500008B1FDF79FFC1CBD00100040B0B596B058
:102C600009AC00251C212046CDE91455CDE91255AB
:102C7000CDE91055FDF7B3FB01A82021FDF7AFFB0F
:102C80003248EB4942F2CF02C0E90015C0E90252D6
:102C9000C0E904558561FEF77DFE08B1FDF77AFCB9
:102CA0004FF4805012A912902848FEF70FFF08B188
:102CB000FDF770FC2548FFF726FA08B1FDF76AFC1E
:102CC000002010A9CDE910002048FEF725FE08B12C
:102CD000FDF760FC602018210990201DFDF77FFBA7
:102CE0001A4821460022FFF7C1F908B1FDF752FC4E
:102CF000164809A90422FFF7B9F908B1FDF74AFC03
:102D0000124809A90822FFF7B1F908B1FDF742FC02
:102D10000E4809A90C22FFF7A9F908B1FDF73AFC02
:102D200001AC14212046FDF75AFB002021460890F3
:102D30004FF4005006900548FEF7C6FD08B1FDF7B8
:102D400029FC0248FFF74AF916B0B0BDB80B0020C5
:102D500010B588B001A81C21FDF741FB104892492D
:102D6000002440F61F52C0E90014C0E90242046189
:102D70008461FFF7C8F908B1FDF70CFC60200294EC
:102D800001A900220190064803940594FFF76EF90B
:102D900008B1FDF7FFFB0248FFF720F908B010BDAE
:102DA000000C002080B50C480C4A4FF4E1310023A0
:102DB0004FF00C0CC0E90021C0E90233C0E9043C2B
:102DC000C0E90633FFF766FC002814BFBDE8804069
:102DD00080BDFDF7DFBB00BF480C002000100140A4
:102DE00080B50C480C4A4FF4E13100234FF00C0C35
:102DF000C0E90021C0E90233C0E9043CC0E9063360
:102E0000FFF748FC002814BFBDE8804080BDFDF7F7
:102E1000C1BB00BF8C0C002000480040FEE7FEE76D
:102E200070477047FEF700BAB0B592B0002401A811
:102E30001421CDE90A44CDE90844FDF7D0FA214830
:102E400000940225016841F080510160006800F0A3
:102E500080500090009800941B48016841F4804124
:102E60000160A821006800F48040009000984FF4B1
:102E700080300790012006904FF480000C950D9053
:102E800004200E90CDE90F15119006A8FEF746FB21
:102E900018B1EFF3108072B6FEE70F2002950521FE
:102EA00001904FF4A050039404904FF4805005908B
:102EB00001A8FEF753FA18B1EFF3108072B6FEE7DF
:102EC00012B0B0BD403802400070004002480168B6
:102ED00041F470010160704788ED00E00148FEF7A1
:102EE000C2BF00BF700B00200268B0F1804F0ED04F
:102EF000264B98420BD0264B984208D0254B98423F
:102F000005D0914B984202D0234B984203D14B6895
:102F100022F070021A43B0F1804F20D01B4B984230
:102F20001DD01B4B98421AD01A4B984217D01B4BFE
:102F3000984214D01A4B984211D01A4B98420ED096
:102F4000154B98420BD0804B984208D0164B9842B4
:102F500005D0164B984202D0154B984203D1CB684E
:102F600022F440721A434B6922F080021A43764BD6
:102F700002608A68C2620A68826240F480629A4291
:102F800004BF0969016301214161704700040040E9
:102F900000080040000C0040000001400018004004
:102FA000001C00400020004000400140004801405B
:102FB0000044014001F01F01012303FA01FC036AF0
:102FC00002FA01F123EA0C030362026A114301626F
:102FD0007047000070B5026A22F001020262036AC3
:102FE000D0F804E082698C68D1F800C023F00203B5
:102FF00022F073022343544C4CEA020C40F48062EA
:10300000A2420CD1CE68D1E905452EF4407222438C
:1030100042EA050E23F00C0226F004031343C0F825
:1030200004E0C0F818C049684163036270BD00BF86
:103030000004014070B5026A22F010020262026AC6
:10304000D0F804E083698C68D1F800C022F0200237
:1030500023F4E64342EA04123B4C43EA0C2C40F4CE
:103060008063A3420FD1CE68D1E905452EF44063B9
:1030700022F0C00243EA840343EA850E6FF04F0357
:1030800003EA06131A43C0F804E0C0F818C0496800
:103090008163026270BD00BF70B5026A22F4807263
:1030A0000262026AD0F804E0C3698C68D1F800C0FB
:1030B00022F4007223F0730342EA0422224C4CEA09
:1030C000030C40F48063A3420FD1CE68D1E90545DB
:1030D0002EF4405322F4406243EA041340F2FF44CA
:1030E00043EA051E3302A3431A43C0F804E0C0F8C4
:1030F0001CC04968C163026270BD00BFB0B5026AFE
:1031000022F480520262D0F820C04368D0F81CE05C
:103110008A680D682CF4005444EA023C2EF4E6421E
:10312000094C42EA052240F48065A54202BF4D6980
:1031300023F4804343EA85134360C2614968016414
:10314000C0F820C0B0BD00BF00040140D0F820C0CE
:10315000036A23F001030362836923F0F00343EA67
:10316000021282612CF00A02114301627047036A65
:1031700023F010030362836923F4704343EA0232AD
:10318000036A826123F0A00242EA011101627047E2
:10319000806B0021C185C184FFF7FCB810B5846B3A
:1031A000206850F8141F94F83D20212A09D111F00D
:1031B000800106D00020E084204600F0AFF82068AF
:1031C0001430006894F83E10222907D110F0400016
:1031D00004D00020E085204600F079F8206C40F013
:1031E000100020642046BDE81040FFF7D3B8016806
:1031F000806B096811F4807F32D10021C18501689C
:1032000051E8031F026821F4807142E80313002B88
:10321000F5D1016851E8051F026821F0010142E87B
:103220000513002BF5D1016851E8051F026821F054
:10323000400142E80513002BF5D12021844680F897
:103240003E105CF8302F012A0CD1026852E8032F9F
:10325000036822F0100243E803210029F5D101E0C0
:1032600000F1300CDCF80010012918BFFFF71EBB7D
:10327000818DFFF77BB8806B016B012918BFFFF7C9
:1032800016BB818D4908FFF771B80168806B09682A
:1032900011F4807F18BFFFF74FBB0021C184016884
:1032A00051E8051F026821F0800142E80513002B58
:1032B000F5D1016851E8031F026841F0400142E87E
:1032C0000313002BF5D17047806BFFF736BB016805
:1032D00051E8031F026821F4907142E80313002BA8
:1032E000F5D1016851E8051F026821F0010142E8AB
:1032F0000513002BF5D1016B012909D1016851E8B3
:10330000031F026821F0100142E80313002BF5D1DE
:10331000202180F83E10002101637047016851E8C8
:10332000031F026821F0C00142E80313002BF5D10E
:10333000202180F83D10704790F83E10222918BFD8
:1033400070478368B3F5805F05D10169B1B100F1C1
:1033500028010A680BE00146002B51F8282F01D103
:10336000036923B103685B6803F07F0301E003682E
:103370005B6813700A6801320A6007E00168826ABC
:1033800049686FF35F2122F8021B8262C18D4FF6FC
:10339000FF7201391142C18500D070470168CA68C7
:1033A00022F02002CA60CA6822F48072CA604A69A8
:1033B00022F001024A61202280F83E20026B012A9D
:1033C00018BFFFF773BA0022026351E8031F0268B7
:1033D00021F0100142E803130168002BF5D10A68BF
:1033E00012F0100F08D081B0002200920A680092FB
:1033F00049680091009901B0818DFEF7B7BF0000C8
:10340000B0B50446006849F20C650169E26821F430
:10341000405111430161D4F808C0D4E90423D4F821
:103420001CE0C16842EA0C02A9431A4342EA0E02B8
:103430001143C1604169A26921F4407111434161A6
:10344000214940F48060884202D1FEF729F801E06A
:10345000FEF71CF8E26919216368A0FB0101B2F5CF
:10346000004F16D15A00DB0FFCF710FF64216FF0FC
:103470006303B0FBF1F202FB0300322303EBC00055
:10348000B0FBF1F14FF4F87000EA410001F00701E0
:1034900013E09A009B0FFCF7F9FE64216FF06303C1
:1034A000B0FBF1F202FB0300322303EB0010B0FB90
:1034B000F1F101F0F00001F00F0100EB0210084300
:1034C00021688860B0BD00BF00140140BCB5134640
:1034D000002504460A46DFF880C0056483858162C2
:1034E00022201E4984F83E00A06BC0E90F1C1C4935
:1034F000C0E9131521680431FDF78AFD01952068A4
:103500000168019141680191019984F83C50216959
:1035100009B909E0206850E8030F216840F4807081
:1035200041E80302002AF5D1206850E8050F216820
:1035300040F0010041E80502002AF5D1206850E87A
:10354000050F216840F0400041E80502002AF5D14E
:10355000002002B0B0BD00BF77320008EF31000894
:103560009D3100080148FEF747BF00BF480C00200E
:103570000148FEF741BF00BF8C0C0020FEE77047FA
:10358000B0B52DED0C8BA82000F0C2F83E4C2046C3
:1035900000F0CEF99FED3F9AB3EE048A3B499FEDD0
:1035A0003C0A3D480022B0EE481AF0EE490A00F00D
:1035B00087FC9FED3AAA9FED3ABA9FED3ACA3A4D81
:1035C000B2EE08DAB0EE491AF0EE491AF0EE482AE7
:1035D000F0EE493AB0EE494AF0EE494AB0EE495AA7
:1035E0000021B0EE4D2A05F15000B0EE4A0AF0EE8F
:1035F0004B0AB0EE4C3A00F089FF05F5AA70B0EE28
:103600004A0AF0EE4B0AB0EE491AF0EE491AB0EE53
:103610004D2AF0EE482AB0EE4C3AF0EE493AB0EEC0
:10362000494AF0EE494AB0EE495A002100F06EFFD7
:103630009FED1E9A2846214640F201220223F0EE19
:10364000480AB0EE490A00F04DFE05F582702146A9
:1036500040F205220223B0EE490AF0EE480A00F0DB
:1036600041FEB248B3EE0A0A322100F091FC1C4838
:103670000F4B1621132200F0EFF90E48BDEC0C8B16
:10368000BDE8B040FEF7E2B90C000020000C0020BD
:103690000000344300000000FC0700209A99194004
:1036A0003333C3406F12833A200800202CA0994185
:1036B00001032520700B00209C4800F0D7BD00BFFF
:1036C00007480021084A094B80F82411C0F820114E
:1036D000044900F10C0CACE80E000549016070478C
:1036E0004004002065380008153800081D3900081E
:1036F00038000020B0B5054D0024281900F0D8FE90
:1037000004F58274B4F5027FF7D1B0BD2008002023
:1037100001490860704700BF1408002080B588B0D8
:103720004FF0000CCDE9021CCDE904CC069302A9B0
:1037300001AB0068FCF732FF08B080BDDFF81CC0A9
:10374000002206E010F8013BD2B201395A401CF8C1
:1037500002200029F6D1D0B2704700BFCC49000842
:1037600080B58AB04FF0060C11F0020F0CEA410C44
:1037700003D15B015201E64605E04CEAC30E4CEA78
:10378000C20CDB04D204CDE9002CCDE9023E0122BB
:1037900000230892CDE906320E220992CA0805924A
:1037A000C1F3800104916946FCF74AFF0AB080BD6D
:1037B0000346021D53F8200BFCF7B3BFB0B5094C0C
:1037C000554D40F2FF11082320462A46FFF7A6FF79
:1037D00005F1100220464FF400710823BDE8B04007
:1037E000FFF79CBF0C00002042780A7000784870F8
:1037F000704710B50446B0F80422006804F58271E1
:10380000FEF783FD2168896B09680A6822F00802C7
:103810000A6010BDF02923D101784A1E022A0BD27A
:10382000D0B201281CD8414890F89022002A08BF45
:10383000704780F8901213E0032911D13B4991F8A9
:1038400090226AB1D0F80120D0F80530D0F809C034
:10385000032081F8900201F5217080E80C10704778
:10386000704700BF50B9314800218C3004E050F857
:103870009C3B42F8213001310429F8D1704700BF48
:10388000244A00681268006890420FD0A1F2012219
:10389000072A1BD8204901F11800DFE802F02B04A9
:1038A0001A1D2023262901F11A007047A1F20122D6
:1038B000072A0BD8184901F11000DFE802F01B04B9
:1038C0001C1F22242826144812307047002000298B
:1038D000704701F11C00704701F11E00704701F1B3
:1038E0000800704701F10A00704701F10C007047B1
:1038F00001F10E0070470848143070470648163032
:10390000704708467047881C7047881D7047081D1F
:10391000704700BF280A002000030020034890F8E9
:10392000901211B1012180F89012704768050020B3
:1039300010B504682046FDF78EF92068416941F012
:1039400002014161416941F0100141610E49884223
:103950000CD00E49884218BF10BD2046002100221D
:103960000023FFF7FDFE20460C2107E020467021D2
:1039700000220023FFF7F4FE20467C2100220023D2
:10398000BDE81040FFF7ECBE006800400064004056
:1039900010B5A0F8041204460A46006804F58271C6
:1039A000FEF7B3FC2068806B0068016821F0080115
:1039B000016010BD0068FEF77BBF0000B0B5044693
:1039C0000848013902889142C2BF511C0180B0BD34
:1039D0000025058094F8240108B96069804784F8BF
:1039E0002451B0BD1A080020F8B5044601200D4648
:1039F00084F82401607A884228D1274604F1980689
:103A00002A4601CF00F582713046FCF7B6FC002053
:103A1000C1B2032907D87A5C2144013091F898108B
:103A20009142F5D012E0691E601890F89850304627
:103A3000FFF784FE854209D104F19D00C4F81C0102
:103A4000226994F89C10BDE8F8401047D4F8200192
:103A50000130C4F82001F8BD10B54360836104460D
:103A600050B26FF07F03B0F1FF3F48B2D8BF1A46A3
:103A7000B0F1FF3F6272C8BF0B46D1B2237220681B
:103A8000FFF786FF2068BDE81040FFF7B2BEB0B573
:103A900000F11D0301770446C0F81831C5680846D7
:103AA00011461A46A847207A04F11805411E2846F7
:103AB000FFF744FE227AA91801F8010C2946206874
:103AC000BDE8B040FFF776BF10B500F15C0C0446CE
:103AD000ACE80E0080ED1E0AC0ED1F0A80ED070A5B
:103AE0000298A0660398E0660498206705986067CE
:103AF0000698A4F880000798A4F88200204600F0F9
:103B00001BF9E06D3C21FEF75FF9D4E91801BDE82F
:103B10001040FEF73DBB000010B50446B0F89A1007
:103B2000B0F88200421E8A4203DD481CA4F89A00C5
:103B300043E00021B5EE001A03EE100AA4F89A1033
:103B4000E26D1268536A5162B4F880101AB200EE46
:103B5000102A02EE101AB8EEC00A94ED1F4A94ED36
:103B6000215A20EE010AB8EE421AB8EE432A9FED20
:103B7000713A80EE010A9FED6E1A25EE022A80EE60
:103B8000040A80EE020A20EE010A30EE000A20EE5E
:103B9000030A84ED240A94F8980002280ED0012824
:103BA0003BD050B900200122C4E92200C4F894009F
:103BB000E063A06EB4F870108CE010BDD4F88800FB
:103BC000606504F1500000F05FF9A06DD4F890102A
:103BD000C4F88C00C4E90B01204600F0A7FC94ED6A
:103BE000000A84ED250AB5EEC00A606EF1EE10FA07
:103BF0001EDD98B3042855D1206E94ED1E1A90ED69
:103C0000032A80EE010AB8EE421A006820EE010A8B
:103C1000BCEEC00A80ED0E0A58E000200022C4E984
:103C20002200C4F89400E063A06EB4F8701075E050
:103C300028B3042858D1206E94ED1E1AB1EE400A24
:103C400090ED032A80EE010AB8EE421A006820EED9
:103C5000010ABCEEC00A80ED0E0A5BE0206E94ED16
:103C60001E1A90ED032A80EE010AB8EE421A00688F
:103C700020EE010ABCEEC00A80ED0D0A26E0206E9F
:103C800094ED1E1AB1EE400A90ED032A80EE010A6F
:103C9000B8EE421A006820EE010ABCEEC00A80EDC0
:103CA0000D0A37E0226E94ED1E1A082892ED032AC1
:103CB00080EE010AB8EE421A20EE010ABCEEC00AFC
:103CC000126810EE101A14BF1164D163B4F87010AA
:103CD000A06E0022FDF79EFAB4F87410E06E012287
:103CE000BDE81040FDF796BA226E94ED1E1AB1EEB3
:103CF000400A082892ED032A80EE010AB8EE421A23
:103D000020EE010ABCEEC00A126810EE101A14BFB1
:103D10001164D163B4F87010A06E0122FDF77AFA35
:103D2000B4F87410E06E0022BDE81040FDF772BADE
:103D300000007A44DB0F49402DE9F04786B00DF1D1
:103D40000409044614214846FCF749FB4FF00008DB
:103D50000120394F0025CDF80C80029002200490FC
:103D600036488246022D04BF06B0BDE8F08704EB5A
:103D700085065146B06E00EB0A014FEAB1210629D3
:103D80004CD8DFE801F0042C0E1822364000CDF8A4
:103D90000080396841F001013960396801F00101A2
:103DA0003AE0CDF80080396841F0040139603968A3
:103DB00001F0040130E0CDF80080396841F00801DD
:103DC0003960396801F0080126E0CDF800803968D3
:103DD00041F010013960396801F010011CE0CDF8A4
:103DE0000080396841F002013960396801F0020150
:103DF00012E0CDF80080396841F02001396039685F
:103E000001F0200108E0CDF80080396841F0400160
:103E10003960396801F0400100910099316F0191DA
:103E20004946FDF727F9B6F87010B06E0122FDF78C
:103E3000F1F9013596E700BF303802400000FEBFBF
:103E4000B0B5002504462C2105600830FCF7C7FA00
:103E500004F13C001421FCF7C2FA4FF07E50C4E993
:103E600015551121C4F8840004F18800A4F89A5073
:103E7000FCF7B5FA2046B0BDB5EEC00AF1EE10FA77
:103E8000C8BF80ED000A704790ED010A90ED022A4C
:103E900090ED001A30EE423AB0EEC33AB4EEC13AB9
:103EA000F1EE10FA08DDB4EEC02AF1EE10FAACBF64
:103EB00032EE410A32EE010A80ED020A704700003C
:103EC00010B59FED091AC0E9001280ED030A0446FF
:103ED000C0ED040AB0EE410A00F008F8D4E9000190
:103EE000BDE81040FEF754B90000000010B590ED99
:103EF000041ADFED250A044631EE000A00F02CFC1E
:103F000094ED032AB4EEC20AB0EE421AF1EE10FAB2
:103F100008DCB5EEC00AB0EE401AF1EE10FAB8BFF8
:103F20009FED1A1A84ED051A81EE020AB6EE002AF8
:103F3000216830EE000A94ED023A30EE020AC868B9
:103F400080EE030A013002EE100AB8EE422A20EE9B
:103F5000020ABCEEC00A626810EE100A0138042A98
:103F600003D02AB90968343107E00968383104E020
:103F70000968082A14BF40313C31086094ED040AF6
:103F800031EE400A10BD00BF0000B4430000000045
:103F90002DE9F84F2DED125BA0F88012504F80ED07
:103FA0009F0A04464FF480704F4DB3EE048AB2EE80
:103FB0000C9A4C49DFF834B14FF032084FF00D093C
:103FC0000023002603904FF48050B0EE480AF0EE34
:103FD000490ACDF81480CDF81090029007F5006AD8
:103FE00020462A460197CDF800A0D84707F5406142
:103FF0004FF480602A460423B0EE480AF0EE490AE6
:10400000CDE9001102904FF480503949CDE9030900
:1040100004F19C00CDF81480D84707F580674FF471
:10402000804001212A460823B0EE480AF0EE490AF2
:10403000CDE900A7CDE902102E4904F59C70CDE929
:104040000498D8474FF40050CDE900772A492A4612
:104050000C23B0EE480AF0EE490A02904FF480506B
:10406000CDE9030904F5EA70CDF81480D8479FED37
:10407000239A9FED23AA9FED23BAB1EE04CAB2EEB4
:1040800004DA21E0A519B0EE490AF0EE4C0AB0EED0
:104090004B1AF0EE4B1AB0EE4D2AF0EE482AB0EE75
:1040A0004A3AF0EE4B3AB0EE4B4AF0EE4B4AB0EEE5
:1040B0004B5A0021284600F029FA05F15000B0EED5
:1040C0004C0AFFF7D9FE9C36B6F51C7FDAD10120E9
:1040D00084F89002BDEC125B01B0BDE8F08F00BF28
:1040E00000000240500A0020B80B0020C93A000826
:1040F000980A0020E00A0020280B0020CDCCCC3DFF
:10410000CDCC4C3D00000000B0F88022B0F89212F7
:10411000013A8A4203DD0131A0F892127047002172
:10412000A0F8921290F89022022AC0F0828000F04B
:104130008C80032A40F0968084B090ED9D1A90ED1B
:104140009E2A90EDA35A90EDA13A90EDA24A90EDEF
:104150009C0A0022694631EE021AB6EE002A25EECC
:10416000011A33EE045A21EE021A33EE442A32EEDB
:10417000014A35EE013A32EE412A35EE411AB1EEEE
:10418000433A81EE005A9FED381AB1EE444A82EE6E
:10419000002A83EE003A84EE000A8DED002A8DEDB0
:1041A000025A8DED013A8DED030A04B00CE08B1834
:1041B000043293ED000AB0EEC00AB4EEC01AF1EE7C
:1041C00010FAB8BFB0EE401A102AF0D190ED9F2A35
:1041D000B7EE000A783000224FF0020CB4EEC21A9B
:1041E00082EE013AF1EE10FAC8BFB0EE430A102A8F
:1041F00008BF70478B1890ED002A93ED001A20EE4F
:10420000011AB4EEC12AF1EE10FA02DAB0EE421A47
:1042100008E0B1EE422AB4EEC21AF1EE10FAB8BFCD
:10422000B0EE421A80F820C080ED041A9C300432AF
:10423000DDE79822C0E9A111C0F88C1201E0815499
:104240009C32B2F5427FFAD10CE000210122C0E994
:10425000A111C0F88C12982101E042549C31B1F5B3
:10426000427FFAD1704700BF00000000B0B504469D
:1042700000256019FFF7E4FD9C35B5F51C7FF8D1EA
:1042800000200949A4F8920284F89002C4E9A10030
:10429000C4F88C020348C4E99C10C4F87802204694
:1042A000B0BD00BFCDCC4C3F4A0C823D0C4A013919
:1042B00013889942C2BF581C108070470023138096
:1042C000D0E93E12914205D1C36380F80031C0F8B5
:1042D0008C3002E0012280F80021C0F8FC10704709
:1042E0001C08002010B5A0F8A420C0F8A01080F889
:1042F000E03080ED2E0A0446C0ED2C0A0846114637
:10430000FFF7BEFAC4F8A80010BD000010B50446BF
:1043100090F8E000032814D8DFE800F00202171E2E
:10432000B4F8BE0094ED2C0A94ED3B1A02EE100A8C
:1043300081EE000AB8EE422A20EE020A84ED3C0A21
:1043400023E09FED1A0A00201DE0D4F8C400D4F841
:10435000E810C4E91F100FE0D4F8C000D4F8E4104E
:10436000C4E90B10204600F0E1F82068D4F8C4102E
:10437000C4F8E800C4E91F0104F1500000F0D6F8C9
:10438000206D00EE100AC4F8F00094ED2D1A80EEB6
:10439000010ABDEEC00AD4F8A82010EE100A010AE6
:1043A0001170D4F8A810487010BD00BF00000000C4
:1043B0007CB50446D0F8F800394E0DF10601013005
:1043C000C4F8F800D4F8A05005F12000B04705F17A
:1043D000220001A9B04705F124000DF10201B04708
:1043E00005F126006946B047B4F8BC100020B4F8C7
:1043F000D430A0EB5102BDF80600C31A1BB29A429A
:1044000003DDD4F8DC20013205E0D4F8DC20B3EB86
:10441000510F02DD013AC4F8DC2002FB010200EE7C
:10442000101A9FED202A01EE102AB8EE400AB8EECD
:10443000C11A94ED2E4A94ED2D3AC4F8D82081EE9D
:10444000000A30EE000A20EE020A80EE040A84ED33
:10445000300A9FED150ABDF9041001EE101AB8EEEE
:10446000C11A21EE000A80EE040A84ED310ABDF97A
:10447000021000EE101AB8EEC00A23EE000A84ED16
:10448000320A9FED0A0ABDF9001001EE101AB8EECB
:10449000C11AC4F8D40031EE000A84ED330A73BDAA
:1044A000E9370008DB0F49405077D63D3393884306
:1044B000B0B5002504462C2105600830FBF78FFFBE
:1044C00004F158002C21FBF78AFF04F18C00142121
:1044D000FBF785FF04F13C001821FBF780FF09483A
:1044E000C4F8B4000848C4F8BC00032084F8E00015
:1044F0002046C4E93E5584F80051C4E93955C4E961
:104500003B55B0BD0000A03A0020004000F1080279
:10451000C0ED0D3A80ED013A82EC060A00F120026E
:1045200082EC034A80F838107047000090ED0B2AA7
:1045300090ED0C0A90ED0D3A32EE401AB0EEC14A01
:10454000B4EEC34AF1EE10FA07DA9FED681AB0EE46
:10455000402A80ED0B0AB0EE414A90ED086A90EDDA
:10456000023AB5EE406AF1EE10FA09D190ED095A1F
:10457000B5EE405AF1EE10FA02D1B7EE005A22E041
:10458000B4EEC64AF1EE10FA12DDB4EEC46AF1EEF2
:1045900010FA0FDA90ED097AB4EEC74AF1EE10FA8C
:1045A000BEBF37EE465A37EE446A86EE055A01E042
:1045B000B7EE005A90ED096AB4EEC64AF1EE10FA71
:1045C000A8BF9FED4A5A90ED066AB5EE406AF1EE3B
:1045D00010FA18D0D0ED030AF1EE461A90ED0F7ADA
:1045E000C1EEA01AB4EEE17AF1EE10FA02DAC0EDF3
:1045F0000F1A08E086EE206AB4EEC67AF1EE10FAE1
:10460000C8BF80ED0F6A90ED0A6AB5EE406AF1EE20
:1046100010FA04D0B4EEC64AF1EE10FA60DA90ED6A
:10462000014A90ED0F7A90ED036A25EE044A01EEFF
:10463000047A80ED0F7A26EE074A90F8381090ED54
:10464000045A21EE033A01290CD190ED006AD0ED15
:10465000120A90ED017A36EE606A25EE065A85EE72
:10466000076A09E090ED137A90ED016A31EE477A1E
:1046700025EE075A85EE066AD0ED100A33EE043AAD
:1046800090ED075A90ED057A33EE063A32EE604A25
:10469000B5EE405A04EE073AF1EE10FA13EE101A96
:1046A00080ED003A14D0B1EE454AB4EEC43AF1EED2
:1046B00010FA04DA80ED004A14EE101A08E0B4EEA5
:1046C000C53AF1EE10FAC4BF80ED005A15EE101A8B
:1046D00080ED102A80ED110A816480ED131A704775
:1046E0009FED024A0021C163A7E700BF0000000060
:1046F00010B5074C00F00F03044AB0F1FF3F23440C
:10470000C8BF83180801187010BD00BF00E400E0A6
:1047100014ED00E080B5FCF78DFDFEF785FBFEF79C
:1047200069F9FEF72FF9FEF7BFF9FEF7EBF9FEF78F
:1047300019FAFEF747FAFEF773FAFEF78FFAFEF75B
:104740004FFBFEF72FFBFEF7FBF8FEF701FBFEF732
:1047500017FFFEF714FFFCE710B52DED028BF0EE0E
:10476000408A18EE900AB0EE608A20F00040C0F156
:10477000FF40C00F07D118EE100A20F00040C0F132
:10478000FF40C00F2BD018EE101A18EE900A00F060
:1047900097F800EE100A10EE100A6FEAD05010F0F1
:1047A000FF0F04BFBDEC028B10BD18EE900A00F0A5
:1047B000004110EE100A00F00040814204BFBDEC41
:1047C000028B10BD18EE101A10EE100ABDEC028B11
:1047D00061F31E0000EE900A30EE600A10BD18EE84
:1047E000900A4FF07F41B1EB400F1CBF18EE100A4A
:1047F0005FEA4000C7D10120FBF733FEBDEC028B1E
:10480000BDE81040AFF30080DFED020A80EEA00AA1
:1048100070470000000000000EF1020E2EF0030EA3
:104820005EF8044B244204D44FEA4102B2F17F4FB8
:1048300011D84FEA4003B3F17F4F0CD80ED14FEAA5
:10484000D07C0CEB4C0C0CF1020CB2F17F4F08BF8A
:104850004CEBD17C04E04FF0080C01E04FEAD17C36
:104860000CEB4C0324FA03F404F00704B4F1040C39
:1048700006D20EEB840CBDE810404CF0010C6047F2
:10488000DFE80CF0070802024FF00040A0F58000BE
:1048900010BD0846420018BFD2F1807288BF00F0F8
:1048A000004010BDF1EE100A4FF6FF71C0F2C031AA
:1048B00020EA010040F04070E1EE100A704700006D
:1048C0004FF07F4C3CEA410318BF3CEA400200F045
:1048D00062804FF47F0C0CEAD11310F0004F18BF28
:1048E00043F005031CEAD01218BF13EA0C0F00F0C6
:1048F00057804FF0004C4CEA00204CEA0121A3F510
:1049000080339A4210DD23F00203B0F1004F06D34A
:1049100043F00203401ABCBF404283F001034FEA58
:104920004000A2F58032ECE74FEA224CBCEB234F6B
:1049300008DB884206D31CD0A0EB4100C0F1000088
:1049400083F0010340001DD217D40DD0B0FA80FCD3
:104950000CF1010C00FA0CF0A2EB0C42D2F1000CAD
:1049600012DB4FEAC37070474FEA437000F000401B
:10497000704713F0020FE5D0DEE74FEA4000B2F5D2
:104980008032EBDD002AE9DD4FEAC21242EA502014
:1049900040EAC370704710B5FFF73EFFEDFFFF3EE2
:1049A0001CEAD11F02D000F0004070470048704759
:1049B0000000C07F000000000000000001020304AE
:1049C000060708090000000001020304005EBCE2C3
:1049D000613FDD83C29C7E20A3FD1F419DC3217FDB
:1049E000FCA2401E5F01E3BD3E6082DC237D9FC1CF
:1049F000421CFEA0E1BF5D0380DE3C62BEE0025CC3
:104A0000DF81633D7C22C09E1D43A1FF4618FAA4AE
:104A100027799BC584DA3866E5BB5907DB8567399A
:104A2000BAE406581947A5FB7826C49A653BD9878E
:104A3000045AB8E6A7F91B45C6987A24F8A6441A82
:104A400099C7257B3A6486D85B05E7B98CD2306E6E
:104A5000EDB3510F4E10F2AC2F7193CD114FADF35A
:104A6000702ECC92D38D6F31B2EC0E50AFF1134D4E
:104A7000CE90722C6D33D18F0C52B0EE326C8ED042
:104A8000530DEFB1F0AE4C1291CF2D73CA9476282E
:104A9000ABF517490856B4EA6937D58B5709EBB51A
:104AA00036688AD495CB2977F4AA4816E9B7550B0E
:104AB00088D6346A2B7597C94A14F6A8742AC89602
:104AC000154BA9F7B6E80A54D7896B35004B000897
:104AD0000000002040020000C4010008204B000834
:104AE000400200209010000000020008CDEBFFFF04
:104AF000D1EBFFFF01ECFFFF000000000000000011
:104B0000420182100526280A002008FF24F4008CA8
:104B10000C002001FF9100000000000000000000D8
:040000050800018965
:00000001FF
